{
  "contractName": "AccessControl",
  "abi": [
    {
      "inputs": [],
      "stateMutability": "nonpayable",
      "type": "constructor"
    },
    {
      "anonymous": false,
      "inputs": [
        {
          "indexed": true,
          "internalType": "address",
          "name": "account",
          "type": "address"
        }
      ],
      "name": "AdminAdded",
      "type": "event"
    },
    {
      "anonymous": false,
      "inputs": [
        {
          "indexed": true,
          "internalType": "address",
          "name": "account",
          "type": "address"
        }
      ],
      "name": "AdminRemoved",
      "type": "event"
    },
    {
      "anonymous": false,
      "inputs": [
        {
          "indexed": true,
          "internalType": "uint256",
          "name": "fileId",
          "type": "uint256"
        },
        {
          "indexed": false,
          "internalType": "string",
          "name": "ipfsHash",
          "type": "string"
        }
      ],
      "name": "FileHashAdded",
      "type": "event"
    },
    {
      "anonymous": false,
      "inputs": [
        {
          "indexed": true,
          "internalType": "address",
          "name": "previousOwner",
          "type": "address"
        },
        {
          "indexed": true,
          "internalType": "address",
          "name": "newOwner",
          "type": "address"
        }
      ],
      "name": "OwnershipTransferred",
      "type": "event"
    },
    {
      "inputs": [
        {
          "internalType": "uint256",
          "name": "",
          "type": "uint256"
        }
      ],
      "name": "fileHashes",
      "outputs": [
        {
          "internalType": "string",
          "name": "",
          "type": "string"
        }
      ],
      "stateMutability": "view",
      "type": "function"
    },
    {
      "inputs": [],
      "name": "owner",
      "outputs": [
        {
          "internalType": "address",
          "name": "",
          "type": "address"
        }
      ],
      "stateMutability": "view",
      "type": "function"
    },
    {
      "inputs": [],
      "name": "renounceOwnership",
      "outputs": [],
      "stateMutability": "nonpayable",
      "type": "function"
    },
    {
      "inputs": [
        {
          "internalType": "address",
          "name": "newOwner",
          "type": "address"
        }
      ],
      "name": "transferOwnership",
      "outputs": [],
      "stateMutability": "nonpayable",
      "type": "function"
    },
    {
      "inputs": [
        {
          "internalType": "address",
          "name": "account",
          "type": "address"
        }
      ],
      "name": "isAdmin",
      "outputs": [
        {
          "internalType": "bool",
          "name": "",
          "type": "bool"
        }
      ],
      "stateMutability": "view",
      "type": "function"
    },
    {
      "inputs": [
        {
          "internalType": "address",
          "name": "account",
          "type": "address"
        }
      ],
      "name": "addAdmin",
      "outputs": [],
      "stateMutability": "nonpayable",
      "type": "function"
    },
    {
      "inputs": [
        {
          "internalType": "address",
          "name": "account",
          "type": "address"
        }
      ],
      "name": "removeAdmin",
      "outputs": [],
      "stateMutability": "nonpayable",
      "type": "function"
    },
    {
      "inputs": [
        {
          "internalType": "string",
          "name": "ipfsHash",
          "type": "string"
        }
      ],
      "name": "addFileHash",
      "outputs": [
        {
          "internalType": "uint256",
          "name": "",
          "type": "uint256"
        }
      ],
      "stateMutability": "nonpayable",
      "type": "function"
    },
    {
      "inputs": [
        {
          "internalType": "uint256",
          "name": "fileId",
          "type": "uint256"
        }
      ],
      "name": "getFileHash",
      "outputs": [
        {
          "internalType": "string",
          "name": "",
          "type": "string"
        }
      ],
      "stateMutability": "view",
      "type": "function"
    }
  ],
  "bytecode": "0x608060405234801561001057600080fd5b5061002d61002261003a60201b60201c565b61004260201b60201c565b6000600381905550610106565b600033905090565b60008060009054906101000a900473ffffffffffffffffffffffffffffffffffffffff169050816000806101000a81548173ffffffffffffffffffffffffffffffffffffffff021916908373ffffffffffffffffffffffffffffffffffffffff1602179055508173ffffffffffffffffffffffffffffffffffffffff168173ffffffffffffffffffffffffffffffffffffffff167f8be0079c531659141344cd1fd0a4f28419497f9722a3daafe3b4186f6b6457e060405160405180910390a35050565b610e8a806101156000396000f3fe608060405234801561001057600080fd5b50600436106100935760003560e01c80638da5cb5b116100665780638da5cb5b1461010a578063ba89949e14610128578063c110f4c914610158578063eb13113514610188578063f2fde38b146101b857610093565b80631785f53c1461009857806324d7806c146100b457806370480275146100e4578063715018a614610100575b600080fd5b6100b260048036038101906100ad91906108e4565b6101d4565b005b6100ce60048036038101906100c991906108e4565b6101e8565b6040516100db9190610a61565b60405180910390f35b6100fe60048036038101906100f991906108e4565b61023e565b005b610108610252565b005b610112610266565b60405161011f9190610a46565b60405180910390f35b610142600480360381019061013d919061090d565b61028f565b60405161014f9190610afe565b60405180910390f35b610172600480360381019061016d919061094e565b610361565b60405161017f9190610a7c565b60405180910390f35b6101a2600480360381019061019d919061094e565b610401565b6040516101af9190610a7c565b60405180910390f35b6101d260048036038101906101cd91906108e4565b6104a6565b005b6101dc61052a565b6101e5816105a8565b50565b6000600160008373ffffffffffffffffffffffffffffffffffffffff1673ffffffffffffffffffffffffffffffffffffffff16815260200190815260200160002060009054906101000a900460ff169050919050565b61024661052a565b61024f81610646565b50565b61025a61052a565b61026460006106e3565b565b60008060009054906101000a900473ffffffffffffffffffffffffffffffffffffffff16905090565b600061029a336101e8565b6102d9576040517f08c379a00000000000000000000000000000000000000000000000000000000081526004016102d090610ade565b60405180910390fd5b60006003549050826002600083815260200190815260200160002090805190602001906103079291906107af565b506003600081548092919061031b90610c78565b9190505550807fd14e25ed71a404367461d2269b2413ef73b82aae51eaf6f172af69e3bcc32ee3846040516103509190610a7c565b60405180910390a280915050919050565b6002602052806000526040600020600091509050805461038090610c15565b80601f01602080910402602001604051908101604052809291908181526020018280546103ac90610c15565b80156103f95780601f106103ce576101008083540402835291602001916103f9565b820191906000526020600020905b8154815290600101906020018083116103dc57829003601f168201915b505050505081565b606060026000838152602001908152602001600020805461042190610c15565b80601f016020809104026020016040519081016040528092919081815260200182805461044d90610c15565b801561049a5780601f1061046f5761010080835404028352916020019161049a565b820191906000526020600020905b81548152906001019060200180831161047d57829003601f168201915b50505050509050919050565b6104ae61052a565b600073ffffffffffffffffffffffffffffffffffffffff168173ffffffffffffffffffffffffffffffffffffffff16141561051e576040517f08c379a000000000000000000000000000000000000000000000000000000000815260040161051590610a9e565b60405180910390fd5b610527816106e3565b50565b6105326107a7565b73ffffffffffffffffffffffffffffffffffffffff16610550610266565b73ffffffffffffffffffffffffffffffffffffffff16146105a6576040517f08c379a000000000000000000000000000000000000000000000000000000000815260040161059d90610abe565b60405180910390fd5b565b6000600160008373ffffffffffffffffffffffffffffffffffffffff1673ffffffffffffffffffffffffffffffffffffffff16815260200190815260200160002060006101000a81548160ff0219169083151502179055508073ffffffffffffffffffffffffffffffffffffffff167fa3b62bc36326052d97ea62d63c3d60308ed4c3ea8ac079dd8499f1e9c4f80c0f60405160405180910390a250565b60018060008373ffffffffffffffffffffffffffffffffffffffff1673ffffffffffffffffffffffffffffffffffffffff16815260200190815260200160002060006101000a81548160ff0219169083151502179055508073ffffffffffffffffffffffffffffffffffffffff167f44d6d25963f097ad14f29f06854a01f575648a1ef82f30e562ccd3889717e33960405160405180910390a250565b60008060009054906101000a900473ffffffffffffffffffffffffffffffffffffffff169050816000806101000a81548173ffffffffffffffffffffffffffffffffffffffff021916908373ffffffffffffffffffffffffffffffffffffffff1602179055508173ffffffffffffffffffffffffffffffffffffffff168173ffffffffffffffffffffffffffffffffffffffff167f8be0079c531659141344cd1fd0a4f28419497f9722a3daafe3b4186f6b6457e060405160405180910390a35050565b600033905090565b8280546107bb90610c15565b90600052602060002090601f0160209004810192826107dd5760008555610824565b82601f106107f657805160ff1916838001178555610824565b82800160010185558215610824579182015b82811115610823578251825591602001919060010190610808565b5b5090506108319190610835565b5090565b5b8082111561084e576000816000905550600101610836565b5090565b600061086561086084610b3e565b610b19565b90508281526020810184848401111561087d57600080fd5b610888848285610bd3565b509392505050565b60008135905061089f81610e26565b92915050565b600082601f8301126108b657600080fd5b81356108c6848260208601610852565b91505092915050565b6000813590506108de81610e3d565b92915050565b6000602082840312156108f657600080fd5b600061090484828501610890565b91505092915050565b60006020828403121561091f57600080fd5b600082013567ffffffffffffffff81111561093957600080fd5b610945848285016108a5565b91505092915050565b60006020828403121561096057600080fd5b600061096e848285016108cf565b91505092915050565b61098081610b8b565b82525050565b61098f81610b9d565b82525050565b60006109a082610b6f565b6109aa8185610b7a565b93506109ba818560208601610be2565b6109c381610d4e565b840191505092915050565b60006109db602683610b7a565b91506109e682610d5f565b604082019050919050565b60006109fe602083610b7a565b9150610a0982610dae565b602082019050919050565b6000610a21602583610b7a565b9150610a2c82610dd7565b604082019050919050565b610a4081610bc9565b82525050565b6000602082019050610a5b6000830184610977565b92915050565b6000602082019050610a766000830184610986565b92915050565b60006020820190508181036000830152610a968184610995565b905092915050565b60006020820190508181036000830152610ab7816109ce565b9050919050565b60006020820190508181036000830152610ad7816109f1565b9050919050565b60006020820190508181036000830152610af781610a14565b9050919050565b6000602082019050610b136000830184610a37565b92915050565b6000610b23610b34565b9050610b2f8282610c47565b919050565b6000604051905090565b600067ffffffffffffffff821115610b5957610b58610d1f565b5b610b6282610d4e565b9050602081019050919050565b600081519050919050565b600082825260208201905092915050565b6000610b9682610ba9565b9050919050565b60008115159050919050565b600073ffffffffffffffffffffffffffffffffffffffff82169050919050565b6000819050919050565b82818337600083830152505050565b60005b83811015610c00578082015181840152602081019050610be5565b83811115610c0f576000848401525b50505050565b60006002820490506001821680610c2d57607f821691505b60208210811415610c4157610c40610cf0565b5b50919050565b610c5082610d4e565b810181811067ffffffffffffffff82111715610c6f57610c6e610d1f565b5b80604052505050565b6000610c8382610bc9565b91507fffffffffffffffffffffffffffffffffffffffffffffffffffffffffffffffff821415610cb657610cb5610cc1565b5b600182019050919050565b7f4e487b7100000000000000000000000000000000000000000000000000000000600052601160045260246000fd5b7f4e487b7100000000000000000000000000000000000000000000000000000000600052602260045260246000fd5b7f4e487b7100000000000000000000000000000000000000000000000000000000600052604160045260246000fd5b6000601f19601f8301169050919050565b7f4f776e61626c653a206e6577206f776e657220697320746865207a65726f206160008201527f6464726573730000000000000000000000000000000000000000000000000000602082015250565b7f4f776e61626c653a2063616c6c6572206973206e6f7420746865206f776e6572600082015250565b7f416363657373436f6e74726f6c3a2063616c6c6572206973206e6f7420616e2060008201527f61646d696e000000000000000000000000000000000000000000000000000000602082015250565b610e2f81610b8b565b8114610e3a57600080fd5b50565b610e4681610bc9565b8114610e5157600080fd5b5056fea2646970667358221220edcc3ca9611068a67c04c36063a419b3213965b3268d396d9caa90309ded9a6564736f6c63430008010033",
  "immutableReferences": {},
  "source": "// SPDX-License-Identifier: MIT\r\npragma solidity ^0.8.0;\r\n\r\nimport \"@openzeppelin/contracts/access/Ownable.sol\";\r\n\r\ncontract AccessControl is Ownable {\r\n    mapping(address => bool) private _admins;\r\n    mapping(uint256 => string) public fileHashes;\r\n    uint256 private fileCounter;\r\n\r\n    event AdminAdded(address indexed account);\r\n    event AdminRemoved(address indexed account);\r\n    event FileHashAdded(uint256 indexed fileId, string ipfsHash);\r\n\r\n    modifier onlyAdmin() {\r\n        require(isAdmin(msg.sender), \"AccessControl: caller is not an admin\");\r\n        _;\r\n    }\r\n\r\n    constructor() {\r\n        fileCounter = 0;\r\n    }\r\n\r\n    function isAdmin(address account) public view returns (bool) {\r\n        return _admins[account];\r\n    }\r\n\r\n    function addAdmin(address account) public onlyOwner {\r\n        _addAdmin(account);\r\n    }\r\n\r\n    function removeAdmin(address account) public onlyOwner {\r\n        _removeAdmin(account);\r\n    }\r\n\r\n    function _addAdmin(address account) internal {\r\n        _admins[account] = true;\r\n        emit AdminAdded(account);\r\n    }\r\n\r\n    function _removeAdmin(address account) internal {\r\n        _admins[account] = false;\r\n        emit AdminRemoved(account);\r\n    }\r\n\r\n    function addFileHash(string memory ipfsHash) public onlyAdmin returns (uint256) {\r\n        uint256 currentFileId = fileCounter;\r\n        fileHashes[currentFileId] = ipfsHash;\r\n        fileCounter++;\r\n        emit FileHashAdded(currentFileId, ipfsHash);\r\n        return currentFileId;\r\n    }\r\n\r\n    function getFileHash(uint256 fileId) public view virtual returns (string memory) {\r\n        return fileHashes[fileId];\r\n    }\r\n}",
  "sourcePath": "C:\\Users\\GAUTHAM\\Desktop\\FS\\mdos\\contracts\\AccessControl.sol",
  "compiler": {
    "name": "solc",
    "version": "0.8.1+commit.df193b15.Emscripten.clang"
  },
  "schemaVersion": "3.4.13",
  "updatedAt": "2023-05-04T07:17:32.251Z",
  "devdoc": {
    "kind": "dev",
    "methods": {
      "owner()": {
        "details": "Returns the address of the current owner."
      },
      "renounceOwnership()": {
        "details": "Leaves the contract without owner. It will not be possible to call `onlyOwner` functions anymore. Can only be called by the current owner. NOTE: Renouncing ownership will leave the contract without an owner, thereby removing any functionality that is only available to the owner."
      },
      "transferOwnership(address)": {
        "details": "Transfers ownership of the contract to a new account (`newOwner`). Can only be called by the current owner."
      }
    },
    "version": 1
  },
  "userdoc": {
    "kind": "user",
    "methods": {},
    "version": 1
  }
}