{
  "contractName": "FileStorage",
  "abi": [
    {
      "inputs": [],
      "stateMutability": "nonpayable",
      "type": "constructor"
    },
    {
      "anonymous": false,
      "inputs": [
        {
          "indexed": true,
          "internalType": "address",
          "name": "account",
          "type": "address"
        }
      ],
      "name": "AdminAdded",
      "type": "event"
    },
    {
      "anonymous": false,
      "inputs": [
        {
          "indexed": true,
          "internalType": "address",
          "name": "account",
          "type": "address"
        }
      ],
      "name": "AdminRemoved",
      "type": "event"
    },
    {
      "anonymous": false,
      "inputs": [
        {
          "indexed": true,
          "internalType": "address",
          "name": "owner",
          "type": "address"
        },
        {
          "indexed": true,
          "internalType": "address",
          "name": "approved",
          "type": "address"
        },
        {
          "indexed": true,
          "internalType": "uint256",
          "name": "tokenId",
          "type": "uint256"
        }
      ],
      "name": "Approval",
      "type": "event"
    },
    {
      "anonymous": false,
      "inputs": [
        {
          "indexed": true,
          "internalType": "address",
          "name": "owner",
          "type": "address"
        },
        {
          "indexed": true,
          "internalType": "address",
          "name": "operator",
          "type": "address"
        },
        {
          "indexed": false,
          "internalType": "bool",
          "name": "approved",
          "type": "bool"
        }
      ],
      "name": "ApprovalForAll",
      "type": "event"
    },
    {
      "anonymous": false,
      "inputs": [
        {
          "indexed": true,
          "internalType": "uint256",
          "name": "fileId",
          "type": "uint256"
        },
        {
          "indexed": false,
          "internalType": "string",
          "name": "ipfsHash",
          "type": "string"
        }
      ],
      "name": "FileHashAdded",
      "type": "event"
    },
    {
      "anonymous": false,
      "inputs": [
        {
          "indexed": true,
          "internalType": "address",
          "name": "previousOwner",
          "type": "address"
        },
        {
          "indexed": true,
          "internalType": "address",
          "name": "newOwner",
          "type": "address"
        }
      ],
      "name": "OwnershipTransferred",
      "type": "event"
    },
    {
      "anonymous": false,
      "inputs": [
        {
          "indexed": true,
          "internalType": "address",
          "name": "from",
          "type": "address"
        },
        {
          "indexed": true,
          "internalType": "address",
          "name": "to",
          "type": "address"
        },
        {
          "indexed": true,
          "internalType": "uint256",
          "name": "tokenId",
          "type": "uint256"
        }
      ],
      "name": "Transfer",
      "type": "event"
    },
    {
      "inputs": [
        {
          "internalType": "address",
          "name": "account",
          "type": "address"
        }
      ],
      "name": "addAdmin",
      "outputs": [],
      "stateMutability": "nonpayable",
      "type": "function"
    },
    {
      "inputs": [
        {
          "internalType": "string",
          "name": "ipfsHash",
          "type": "string"
        }
      ],
      "name": "addFileHash",
      "outputs": [
        {
          "internalType": "uint256",
          "name": "",
          "type": "uint256"
        }
      ],
      "stateMutability": "nonpayable",
      "type": "function"
    },
    {
      "inputs": [
        {
          "internalType": "address",
          "name": "to",
          "type": "address"
        },
        {
          "internalType": "uint256",
          "name": "tokenId",
          "type": "uint256"
        }
      ],
      "name": "approve",
      "outputs": [],
      "stateMutability": "nonpayable",
      "type": "function"
    },
    {
      "inputs": [
        {
          "internalType": "address",
          "name": "owner",
          "type": "address"
        }
      ],
      "name": "balanceOf",
      "outputs": [
        {
          "internalType": "uint256",
          "name": "",
          "type": "uint256"
        }
      ],
      "stateMutability": "view",
      "type": "function"
    },
    {
      "inputs": [
        {
          "internalType": "uint256",
          "name": "",
          "type": "uint256"
        }
      ],
      "name": "fileHashes",
      "outputs": [
        {
          "internalType": "string",
          "name": "",
          "type": "string"
        }
      ],
      "stateMutability": "view",
      "type": "function"
    },
    {
      "inputs": [
        {
          "internalType": "uint256",
          "name": "tokenId",
          "type": "uint256"
        }
      ],
      "name": "getApproved",
      "outputs": [
        {
          "internalType": "address",
          "name": "",
          "type": "address"
        }
      ],
      "stateMutability": "view",
      "type": "function"
    },
    {
      "inputs": [
        {
          "internalType": "address",
          "name": "account",
          "type": "address"
        }
      ],
      "name": "isAdmin",
      "outputs": [
        {
          "internalType": "bool",
          "name": "",
          "type": "bool"
        }
      ],
      "stateMutability": "view",
      "type": "function"
    },
    {
      "inputs": [
        {
          "internalType": "address",
          "name": "owner",
          "type": "address"
        },
        {
          "internalType": "address",
          "name": "operator",
          "type": "address"
        }
      ],
      "name": "isApprovedForAll",
      "outputs": [
        {
          "internalType": "bool",
          "name": "",
          "type": "bool"
        }
      ],
      "stateMutability": "view",
      "type": "function"
    },
    {
      "inputs": [],
      "name": "name",
      "outputs": [
        {
          "internalType": "string",
          "name": "",
          "type": "string"
        }
      ],
      "stateMutability": "view",
      "type": "function"
    },
    {
      "inputs": [],
      "name": "owner",
      "outputs": [
        {
          "internalType": "address",
          "name": "",
          "type": "address"
        }
      ],
      "stateMutability": "view",
      "type": "function"
    },
    {
      "inputs": [
        {
          "internalType": "uint256",
          "name": "tokenId",
          "type": "uint256"
        }
      ],
      "name": "ownerOf",
      "outputs": [
        {
          "internalType": "address",
          "name": "",
          "type": "address"
        }
      ],
      "stateMutability": "view",
      "type": "function"
    },
    {
      "inputs": [
        {
          "internalType": "address",
          "name": "account",
          "type": "address"
        }
      ],
      "name": "removeAdmin",
      "outputs": [],
      "stateMutability": "nonpayable",
      "type": "function"
    },
    {
      "inputs": [],
      "name": "renounceOwnership",
      "outputs": [],
      "stateMutability": "nonpayable",
      "type": "function"
    },
    {
      "inputs": [
        {
          "internalType": "address",
          "name": "from",
          "type": "address"
        },
        {
          "internalType": "address",
          "name": "to",
          "type": "address"
        },
        {
          "internalType": "uint256",
          "name": "tokenId",
          "type": "uint256"
        }
      ],
      "name": "safeTransferFrom",
      "outputs": [],
      "stateMutability": "nonpayable",
      "type": "function"
    },
    {
      "inputs": [
        {
          "internalType": "address",
          "name": "from",
          "type": "address"
        },
        {
          "internalType": "address",
          "name": "to",
          "type": "address"
        },
        {
          "internalType": "uint256",
          "name": "tokenId",
          "type": "uint256"
        },
        {
          "internalType": "bytes",
          "name": "data",
          "type": "bytes"
        }
      ],
      "name": "safeTransferFrom",
      "outputs": [],
      "stateMutability": "nonpayable",
      "type": "function"
    },
    {
      "inputs": [
        {
          "internalType": "address",
          "name": "operator",
          "type": "address"
        },
        {
          "internalType": "bool",
          "name": "approved",
          "type": "bool"
        }
      ],
      "name": "setApprovalForAll",
      "outputs": [],
      "stateMutability": "nonpayable",
      "type": "function"
    },
    {
      "inputs": [
        {
          "internalType": "bytes4",
          "name": "interfaceId",
          "type": "bytes4"
        }
      ],
      "name": "supportsInterface",
      "outputs": [
        {
          "internalType": "bool",
          "name": "",
          "type": "bool"
        }
      ],
      "stateMutability": "view",
      "type": "function"
    },
    {
      "inputs": [],
      "name": "symbol",
      "outputs": [
        {
          "internalType": "string",
          "name": "",
          "type": "string"
        }
      ],
      "stateMutability": "view",
      "type": "function"
    },
    {
      "inputs": [
        {
          "internalType": "uint256",
          "name": "tokenId",
          "type": "uint256"
        }
      ],
      "name": "tokenURI",
      "outputs": [
        {
          "internalType": "string",
          "name": "",
          "type": "string"
        }
      ],
      "stateMutability": "view",
      "type": "function"
    },
    {
      "inputs": [
        {
          "internalType": "address",
          "name": "from",
          "type": "address"
        },
        {
          "internalType": "address",
          "name": "to",
          "type": "address"
        },
        {
          "internalType": "uint256",
          "name": "tokenId",
          "type": "uint256"
        }
      ],
      "name": "transferFrom",
      "outputs": [],
      "stateMutability": "nonpayable",
      "type": "function"
    },
    {
      "inputs": [
        {
          "internalType": "address",
          "name": "newOwner",
          "type": "address"
        }
      ],
      "name": "transferOwnership",
      "outputs": [],
      "stateMutability": "nonpayable",
      "type": "function"
    },
    {
      "inputs": [
        {
          "internalType": "string",
          "name": "name",
          "type": "string"
        },
        {
          "internalType": "string",
          "name": "ipfsHash",
          "type": "string"
        }
      ],
      "name": "storeFile",
      "outputs": [
        {
          "internalType": "uint256",
          "name": "",
          "type": "uint256"
        }
      ],
      "stateMutability": "nonpayable",
      "type": "function"
    },
    {
      "inputs": [
        {
          "internalType": "uint256",
          "name": "tokenId",
          "type": "uint256"
        }
      ],
      "name": "getFileInfo",
      "outputs": [
        {
          "components": [
            {
              "internalType": "string",
              "name": "name",
              "type": "string"
            },
            {
              "internalType": "string",
              "name": "ipfsHash",
              "type": "string"
            },
            {
              "internalType": "address",
              "name": "owner",
              "type": "address"
            }
          ],
          "internalType": "struct FileStorage.FileInfo",
          "name": "",
          "type": "tuple"
        }
      ],
      "stateMutability": "view",
      "type": "function"
    },
    {
      "inputs": [
        {
          "internalType": "uint256",
          "name": "tokenId",
          "type": "uint256"
        },
        {
          "internalType": "string",
          "name": "newName",
          "type": "string"
        },
        {
          "internalType": "string",
          "name": "newIpfsHash",
          "type": "string"
        }
      ],
      "name": "updateFileInfo",
      "outputs": [],
      "stateMutability": "nonpayable",
      "type": "function"
    },
    {
      "inputs": [
        {
          "internalType": "uint256",
          "name": "tokenId",
          "type": "uint256"
        }
      ],
      "name": "deleteFile",
      "outputs": [],
      "stateMutability": "nonpayable",
      "type": "function"
    },
    {
      "inputs": [
        {
          "internalType": "uint256",
          "name": "fileId",
          "type": "uint256"
        }
      ],
      "name": "getFileHash",
      "outputs": [
        {
          "internalType": "string",
          "name": "",
          "type": "string"
        }
      ],
      "stateMutability": "view",
      "type": "function"
    }
  ],
  "bytecode": "0x60806040523480156200001157600080fd5b506040518060400160405280600b81526020017f46696c6553746f726167650000000000000000000000000000000000000000008152506040518060400160405280600381526020017f4653540000000000000000000000000000000000000000000000000000000000815250816000908051906020019062000096929190620001ae565b508060019080519060200190620000af929190620001ae565b505050620000d2620000c6620000e060201b60201c565b620000e860201b60201c565b6000600981905550620002c3565b600033905090565b6000600660009054906101000a900473ffffffffffffffffffffffffffffffffffffffff16905081600660006101000a81548173ffffffffffffffffffffffffffffffffffffffff021916908373ffffffffffffffffffffffffffffffffffffffff1602179055508173ffffffffffffffffffffffffffffffffffffffff168173ffffffffffffffffffffffffffffffffffffffff167f8be0079c531659141344cd1fd0a4f28419497f9722a3daafe3b4186f6b6457e060405160405180910390a35050565b828054620001bc906200025e565b90600052602060002090601f016020900481019282620001e057600085556200022c565b82601f10620001fb57805160ff19168380011785556200022c565b828001600101855582156200022c579182015b828111156200022b5782518255916020019190600101906200020e565b5b5090506200023b91906200023f565b5090565b5b808211156200025a57600081600090555060010162000240565b5090565b600060028204905060018216806200027757607f821691505b602082108114156200028e576200028d62000294565b5b50919050565b7f4e487b7100000000000000000000000000000000000000000000000000000000600052602260045260246000fd5b61394f80620002d36000396000f3fe608060405234801561001057600080fd5b506004361061018e5760003560e01c80638da5cb5b116100de578063c5b4200611610097578063e985e9c511610071578063e985e9c5146104b7578063eb131135146104e7578063f2fde38b14610517578063fa70dc8d146105335761018e565b8063c5b420061461043b578063c87b56dd14610457578063d7d56035146104875761018e565b80638da5cb5b1461036757806395d89b4114610385578063a22cb465146103a3578063b88d4fde146103bf578063ba89949e146103db578063c110f4c91461040b5761018e565b806323b872dd1161014b5780636352211e116101255780636352211e146102e1578063704802751461031157806370a082311461032d578063715018a61461035d5761018e565b806323b872dd1461027957806324d7806c1461029557806342842e0e146102c55761018e565b806301ffc9a71461019357806306fdde03146101c3578063081812fc146101e1578063095ea7b3146102115780631785f53c1461022d57806320de107014610249575b600080fd5b6101ad60048036038101906101a89190612a1d565b61054f565b6040516101ba9190612fcb565b60405180910390f35b6101cb610631565b6040516101d89190612fe6565b60405180910390f35b6101fb60048036038101906101f69190612b1c565b6106c3565b6040516102089190612f64565b60405180910390f35b61022b600480360381019061022691906129e1565b610709565b005b61024760048036038101906102429190612876565b610821565b005b610263600480360381019061025e9190612ab0565b610835565b604051610270919061320a565b60405180910390f35b610293600480360381019061028e91906128db565b610931565b005b6102af60048036038101906102aa9190612876565b610991565b6040516102bc9190612fcb565b60405180910390f35b6102df60048036038101906102da91906128db565b6109e7565b005b6102fb60048036038101906102f69190612b1c565b610a07565b6040516103089190612f64565b60405180910390f35b61032b60048036038101906103269190612876565b610a8e565b005b61034760048036038101906103429190612876565b610aa2565b604051610354919061320a565b60405180910390f35b610365610b5a565b005b61036f610b6e565b60405161037c9190612f64565b60405180910390f35b61038d610b98565b60405161039a9190612fe6565b60405180910390f35b6103bd60048036038101906103b891906129a5565b610c2a565b005b6103d960048036038101906103d4919061292a565b610c40565b005b6103f560048036038101906103f09190612a6f565b610ca2565b604051610402919061320a565b60405180910390f35b61042560048036038101906104209190612b1c565b610d74565b6040516104329190612fe6565b60405180910390f35b61045560048036038101906104509190612b1c565b610e14565b005b610471600480360381019061046c9190612b1c565b610f03565b60405161047e9190612fe6565b60405180910390f35b6104a1600480360381019061049c9190612b1c565b610f6b565b6040516104ae91906131e8565b60405180910390f35b6104d160048036038101906104cc919061289f565b611112565b6040516104de9190612fcb565b60405180910390f35b61050160048036038101906104fc9190612b1c565b6111a6565b60405161050e9190612fe6565b60405180910390f35b610531600480360381019061052c9190612876565b61124e565b005b61054d60048036038101906105489190612b45565b6112d2565b005b60007f80ac58cd000000000000000000000000000000000000000000000000000000007bffffffffffffffffffffffffffffffffffffffffffffffffffffffff1916827bffffffffffffffffffffffffffffffffffffffffffffffffffffffff1916148061061a57507f5b5e139f000000000000000000000000000000000000000000000000000000007bffffffffffffffffffffffffffffffffffffffffffffffffffffffff1916827bffffffffffffffffffffffffffffffffffffffffffffffffffffffff1916145b8061062a5750610629826113b3565b5b9050919050565b606060008054610640906133b6565b80601f016020809104026020016040519081016040528092919081815260200182805461066c906133b6565b80156106b95780601f1061068e576101008083540402835291602001916106b9565b820191906000526020600020905b81548152906001019060200180831161069c57829003601f168201915b5050505050905090565b60006106ce8261141d565b6004600083815260200190815260200160002060009054906101000a900473ffffffffffffffffffffffffffffffffffffffff169050919050565b600061071482610a07565b90508073ffffffffffffffffffffffffffffffffffffffff168373ffffffffffffffffffffffffffffffffffffffff161415610785576040517f08c379a000000000000000000000000000000000000000000000000000000000815260040161077c90613188565b60405180910390fd5b8073ffffffffffffffffffffffffffffffffffffffff166107a4611468565b73ffffffffffffffffffffffffffffffffffffffff1614806107d357506107d2816107cd611468565b611112565b5b610812576040517f08c379a0000000000000000000000000000000000000000000000000000000008152600401610809906131a8565b60405180910390fd5b61081c8383611470565b505050565b610829611529565b610832816115a7565b50565b600080600a5490506108473382611645565b60405180606001604052808581526020018481526020013373ffffffffffffffffffffffffffffffffffffffff16815250600b600083815260200190815260200160002060008201518160000190805190602001906108a7929190612623565b5060208201518160010190805190602001906108c4929190612623565b5060408201518160020160006101000a81548173ffffffffffffffffffffffffffffffffffffffff021916908373ffffffffffffffffffffffffffffffffffffffff160217905550905050600a600081548092919061092290613419565b91905055508091505092915050565b61094261093c611468565b82611863565b610981576040517f08c379a000000000000000000000000000000000000000000000000000000000815260040161097890613008565b60405180910390fd5b61098c8383836118f8565b505050565b6000600760008373ffffffffffffffffffffffffffffffffffffffff1673ffffffffffffffffffffffffffffffffffffffff16815260200190815260200160002060009054906101000a900460ff169050919050565b610a0283838360405180602001604052806000815250610c40565b505050565b600080610a1383611bf2565b9050600073ffffffffffffffffffffffffffffffffffffffff168173ffffffffffffffffffffffffffffffffffffffff161415610a85576040517f08c379a0000000000000000000000000000000000000000000000000000000008152600401610a7c90613168565b60405180910390fd5b80915050919050565b610a96611529565b610a9f81611c2f565b50565b60008073ffffffffffffffffffffffffffffffffffffffff168273ffffffffffffffffffffffffffffffffffffffff161415610b13576040517f08c379a0000000000000000000000000000000000000000000000000000000008152600401610b0a906130e8565b60405180910390fd5b600360008373ffffffffffffffffffffffffffffffffffffffff1673ffffffffffffffffffffffffffffffffffffffff168152602001908152602001600020549050919050565b610b62611529565b610b6c6000611ccd565b565b6000600660009054906101000a900473ffffffffffffffffffffffffffffffffffffffff16905090565b606060018054610ba7906133b6565b80601f0160208091040260200160405190810160405280929190818152602001828054610bd3906133b6565b8015610c205780601f10610bf557610100808354040283529160200191610c20565b820191906000526020600020905b815481529060010190602001808311610c0357829003601f168201915b5050505050905090565b610c3c610c35611468565b8383611d93565b5050565b610c51610c4b611468565b83611863565b610c90576040517f08c379a0000000000000000000000000000000000000000000000000000000008152600401610c8790613008565b60405180910390fd5b610c9c84848484611f00565b50505050565b6000610cad33610991565b610cec576040517f08c379a0000000000000000000000000000000000000000000000000000000008152600401610ce390613148565b60405180910390fd5b6000600954905082600860008381526020019081526020016000209080519060200190610d1a929190612623565b5060096000815480929190610d2e90613419565b9190505550807fd14e25ed71a404367461d2269b2413ef73b82aae51eaf6f172af69e3bcc32ee384604051610d639190612fe6565b60405180910390a280915050919050565b60086020528060005260406000206000915090508054610d93906133b6565b80601f0160208091040260200160405190810160405280929190818152602001828054610dbf906133b6565b8015610e0c5780601f10610de157610100808354040283529160200191610e0c565b820191906000526020600020905b815481529060010190602001808311610def57829003601f168201915b505050505081565b3373ffffffffffffffffffffffffffffffffffffffff16610e3482610a07565b73ffffffffffffffffffffffffffffffffffffffff161480610e5b5750610e5a33610991565b5b610e9a576040517f08c379a0000000000000000000000000000000000000000000000000000000008152600401610e91906131c8565b60405180910390fd5b610ea381611f5c565b600b600082815260200190815260200160002060008082016000610ec791906126a9565b600182016000610ed791906126a9565b6002820160006101000a81549073ffffffffffffffffffffffffffffffffffffffff0219169055505050565b6060610f0e8261141d565b6000610f186120aa565b90506000815111610f385760405180602001604052806000815250610f63565b80610f42846120c1565b604051602001610f53929190612f40565b6040516020818303038152906040525b915050919050565b610f736126e9565b600b6000838152602001908152602001600020604051806060016040529081600082018054610fa1906133b6565b80601f0160208091040260200160405190810160405280929190818152602001828054610fcd906133b6565b801561101a5780601f10610fef5761010080835404028352916020019161101a565b820191906000526020600020905b815481529060010190602001808311610ffd57829003601f168201915b50505050508152602001600182018054611033906133b6565b80601f016020809104026020016040519081016040528092919081815260200182805461105f906133b6565b80156110ac5780601f10611081576101008083540402835291602001916110ac565b820191906000526020600020905b81548152906001019060200180831161108f57829003601f168201915b505050505081526020016002820160009054906101000a900473ffffffffffffffffffffffffffffffffffffffff1673ffffffffffffffffffffffffffffffffffffffff1673ffffffffffffffffffffffffffffffffffffffff16815250509050919050565b6000600560008473ffffffffffffffffffffffffffffffffffffffff1673ffffffffffffffffffffffffffffffffffffffff16815260200190815260200160002060008373ffffffffffffffffffffffffffffffffffffffff1673ffffffffffffffffffffffffffffffffffffffff16815260200190815260200160002060009054906101000a900460ff16905092915050565b6060600b600083815260200190815260200160002060010180546111c9906133b6565b80601f01602080910402602001604051908101604052809291908181526020018280546111f5906133b6565b80156112425780601f1061121757610100808354040283529160200191611242565b820191906000526020600020905b81548152906001019060200180831161122557829003601f168201915b50505050509050919050565b611256611529565b600073ffffffffffffffffffffffffffffffffffffffff168173ffffffffffffffffffffffffffffffffffffffff1614156112c6576040517f08c379a00000000000000000000000000000000000000000000000000000000081526004016112bd90613048565b60405180910390fd5b6112cf81611ccd565b50565b3373ffffffffffffffffffffffffffffffffffffffff166112f284610a07565b73ffffffffffffffffffffffffffffffffffffffff161480611319575061131833610991565b5b611358576040517f08c379a000000000000000000000000000000000000000000000000000000000815260040161134f906131c8565b60405180910390fd5b81600b60008581526020019081526020016000206000019080519060200190611382929190612623565b5080600b600085815260200190815260200160002060010190805190602001906113ad929190612623565b50505050565b60007f01ffc9a7000000000000000000000000000000000000000000000000000000007bffffffffffffffffffffffffffffffffffffffffffffffffffffffff1916827bffffffffffffffffffffffffffffffffffffffffffffffffffffffff1916149050919050565b611426816121e5565b611465576040517f08c379a000000000000000000000000000000000000000000000000000000000815260040161145c90613168565b60405180910390fd5b50565b600033905090565b816004600083815260200190815260200160002060006101000a81548173ffffffffffffffffffffffffffffffffffffffff021916908373ffffffffffffffffffffffffffffffffffffffff160217905550808273ffffffffffffffffffffffffffffffffffffffff166114e383610a07565b73ffffffffffffffffffffffffffffffffffffffff167f8c5be1e5ebec7d5bd14f71427d1e84f3dd0314c0f7b2291e5b200ac8c7c3b92560405160405180910390a45050565b611531611468565b73ffffffffffffffffffffffffffffffffffffffff1661154f610b6e565b73ffffffffffffffffffffffffffffffffffffffff16146115a5576040517f08c379a000000000000000000000000000000000000000000000000000000000815260040161159c90613128565b60405180910390fd5b565b6000600760008373ffffffffffffffffffffffffffffffffffffffff1673ffffffffffffffffffffffffffffffffffffffff16815260200190815260200160002060006101000a81548160ff0219169083151502179055508073ffffffffffffffffffffffffffffffffffffffff167fa3b62bc36326052d97ea62d63c3d60308ed4c3ea8ac079dd8499f1e9c4f80c0f60405160405180910390a250565b600073ffffffffffffffffffffffffffffffffffffffff168273ffffffffffffffffffffffffffffffffffffffff1614156116b5576040517f08c379a00000000000000000000000000000000000000000000000000000000081526004016116ac90613108565b60405180910390fd5b6116be816121e5565b156116fe576040517f08c379a00000000000000000000000000000000000000000000000000000000081526004016116f590613088565b60405180910390fd5b61170c600083836001612226565b611715816121e5565b15611755576040517f08c379a000000000000000000000000000000000000000000000000000000000815260040161174c90613088565b60405180910390fd5b6001600360008473ffffffffffffffffffffffffffffffffffffffff1673ffffffffffffffffffffffffffffffffffffffff16815260200190815260200160002060008282540192505081905550816002600083815260200190815260200160002060006101000a81548173ffffffffffffffffffffffffffffffffffffffff021916908373ffffffffffffffffffffffffffffffffffffffff160217905550808273ffffffffffffffffffffffffffffffffffffffff16600073ffffffffffffffffffffffffffffffffffffffff167fddf252ad1be2c89b69c2b068fc378daa952ba7f163c4a11628f55a4df523b3ef60405160405180910390a461185f60008383600161222c565b5050565b60008061186f83610a07565b90508073ffffffffffffffffffffffffffffffffffffffff168473ffffffffffffffffffffffffffffffffffffffff1614806118b157506118b08185611112565b5b806118ef57508373ffffffffffffffffffffffffffffffffffffffff166118d7846106c3565b73ffffffffffffffffffffffffffffffffffffffff16145b91505092915050565b8273ffffffffffffffffffffffffffffffffffffffff1661191882610a07565b73ffffffffffffffffffffffffffffffffffffffff161461196e576040517f08c379a000000000000000000000000000000000000000000000000000000000815260040161196590613068565b60405180910390fd5b600073ffffffffffffffffffffffffffffffffffffffff168273ffffffffffffffffffffffffffffffffffffffff1614156119de576040517f08c379a00000000000000000000000000000000000000000000000000000000081526004016119d5906130a8565b60405180910390fd5b6119eb8383836001612226565b8273ffffffffffffffffffffffffffffffffffffffff16611a0b82610a07565b73ffffffffffffffffffffffffffffffffffffffff1614611a61576040517f08c379a0000000000000000000000000000000000000000000000000000000008152600401611a5890613068565b60405180910390fd5b6004600082815260200190815260200160002060006101000a81549073ffffffffffffffffffffffffffffffffffffffff02191690556001600360008573ffffffffffffffffffffffffffffffffffffffff1673ffffffffffffffffffffffffffffffffffffffff168152602001908152602001600020600082825403925050819055506001600360008473ffffffffffffffffffffffffffffffffffffffff1673ffffffffffffffffffffffffffffffffffffffff16815260200190815260200160002060008282540192505081905550816002600083815260200190815260200160002060006101000a81548173ffffffffffffffffffffffffffffffffffffffff021916908373ffffffffffffffffffffffffffffffffffffffff160217905550808273ffffffffffffffffffffffffffffffffffffffff168473ffffffffffffffffffffffffffffffffffffffff167fddf252ad1be2c89b69c2b068fc378daa952ba7f163c4a11628f55a4df523b3ef60405160405180910390a4611bed838383600161222c565b505050565b60006002600083815260200190815260200160002060009054906101000a900473ffffffffffffffffffffffffffffffffffffffff169050919050565b6001600760008373ffffffffffffffffffffffffffffffffffffffff1673ffffffffffffffffffffffffffffffffffffffff16815260200190815260200160002060006101000a81548160ff0219169083151502179055508073ffffffffffffffffffffffffffffffffffffffff167f44d6d25963f097ad14f29f06854a01f575648a1ef82f30e562ccd3889717e33960405160405180910390a250565b6000600660009054906101000a900473ffffffffffffffffffffffffffffffffffffffff16905081600660006101000a81548173ffffffffffffffffffffffffffffffffffffffff021916908373ffffffffffffffffffffffffffffffffffffffff1602179055508173ffffffffffffffffffffffffffffffffffffffff168173ffffffffffffffffffffffffffffffffffffffff167f8be0079c531659141344cd1fd0a4f28419497f9722a3daafe3b4186f6b6457e060405160405180910390a35050565b8173ffffffffffffffffffffffffffffffffffffffff168373ffffffffffffffffffffffffffffffffffffffff161415611e02576040517f08c379a0000000000000000000000000000000000000000000000000000000008152600401611df9906130c8565b60405180910390fd5b80600560008573ffffffffffffffffffffffffffffffffffffffff1673ffffffffffffffffffffffffffffffffffffffff16815260200190815260200160002060008473ffffffffffffffffffffffffffffffffffffffff1673ffffffffffffffffffffffffffffffffffffffff16815260200190815260200160002060006101000a81548160ff0219169083151502179055508173ffffffffffffffffffffffffffffffffffffffff168373ffffffffffffffffffffffffffffffffffffffff167f17307eab39ab6107e8899845ad3d59bd9653f200f220920489ca2b5937696c3183604051611ef39190612fcb565b60405180910390a3505050565b611f0b8484846118f8565b611f1784848484612232565b611f56576040517f08c379a0000000000000000000000000000000000000000000000000000000008152600401611f4d90613028565b60405180910390fd5b50505050565b6000611f6782610a07565b9050611f77816000846001612226565b611f8082610a07565b90506004600083815260200190815260200160002060006101000a81549073ffffffffffffffffffffffffffffffffffffffff02191690556001600360008373ffffffffffffffffffffffffffffffffffffffff1673ffffffffffffffffffffffffffffffffffffffff168152602001908152602001600020600082825403925050819055506002600083815260200190815260200160002060006101000a81549073ffffffffffffffffffffffffffffffffffffffff021916905581600073ffffffffffffffffffffffffffffffffffffffff168273ffffffffffffffffffffffffffffffffffffffff167fddf252ad1be2c89b69c2b068fc378daa952ba7f163c4a11628f55a4df523b3ef60405160405180910390a46120a681600084600161222c565b5050565b606060405180602001604052806000815250905090565b6060600060016120d0846123c9565b01905060008167ffffffffffffffff811115612115577f4e487b7100000000000000000000000000000000000000000000000000000000600052604160045260246000fd5b6040519080825280601f01601f1916602001820160405280156121475781602001600182028036833780820191505090505b509050600082602001820190505b6001156121da578080600190039150507f3031323334353637383961626364656600000000000000000000000000000000600a86061a8153600a85816121c4577f4e487b7100000000000000000000000000000000000000000000000000000000600052601260045260246000fd5b04945060008514156121d5576121da565b612155565b819350505050919050565b60008073ffffffffffffffffffffffffffffffffffffffff1661220783611bf2565b73ffffffffffffffffffffffffffffffffffffffff1614159050919050565b50505050565b50505050565b60006122538473ffffffffffffffffffffffffffffffffffffffff16612600565b156123bc578373ffffffffffffffffffffffffffffffffffffffff1663150b7a0261227c611468565b8786866040518563ffffffff1660e01b815260040161229e9493929190612f7f565b602060405180830381600087803b1580156122b857600080fd5b505af19250505080156122e957506040513d601f19601f820116820180604052508101906122e69190612a46565b60015b61236c573d8060008114612319576040519150601f19603f3d011682016040523d82523d6000602084013e61231e565b606091505b50600081511415612364576040517f08c379a000000000000000000000000000000000000000000000000000000000815260040161235b90613028565b60405180910390fd5b805181602001fd5b63150b7a0260e01b7bffffffffffffffffffffffffffffffffffffffffffffffffffffffff1916817bffffffffffffffffffffffffffffffffffffffffffffffffffffffff1916149150506123c1565b600190505b949350505050565b600080600090507a184f03e93ff9f4daa797ed6e38ed64bf6a1f010000000000000000831061244d577a184f03e93ff9f4daa797ed6e38ed64bf6a1f0100000000000000008381612443577f4e487b7100000000000000000000000000000000000000000000000000000000600052601260045260246000fd5b0492506040810190505b6d04ee2d6d415b85acef810000000083106124b0576d04ee2d6d415b85acef810000000083816124a6577f4e487b7100000000000000000000000000000000000000000000000000000000600052601260045260246000fd5b0492506020810190505b662386f26fc10000831061250557662386f26fc1000083816124fb577f4e487b7100000000000000000000000000000000000000000000000000000000600052601260045260246000fd5b0492506010810190505b6305f5e1008310612554576305f5e100838161254a577f4e487b7100000000000000000000000000000000000000000000000000000000600052601260045260246000fd5b0492506008810190505b612710831061259f576127108381612595577f4e487b7100000000000000000000000000000000000000000000000000000000600052601260045260246000fd5b0492506004810190505b606483106125e857606483816125de577f4e487b7100000000000000000000000000000000000000000000000000000000600052601260045260246000fd5b0492506002810190505b600a83106125f7576001810190505b80915050919050565b6000808273ffffffffffffffffffffffffffffffffffffffff163b119050919050565b82805461262f906133b6565b90600052602060002090601f0160209004810192826126515760008555612698565b82601f1061266a57805160ff1916838001178555612698565b82800160010185558215612698579182015b8281111561269757825182559160200191906001019061267c565b5b5090506126a59190612720565b5090565b5080546126b5906133b6565b6000825580601f106126c757506126e6565b601f0160209004906000526020600020908101906126e59190612720565b5b50565b60405180606001604052806060815260200160608152602001600073ffffffffffffffffffffffffffffffffffffffff1681525090565b5b80821115612739576000816000905550600101612721565b5090565b600061275061274b8461324a565b613225565b90508281526020810184848401111561276857600080fd5b612773848285613374565b509392505050565b600061278e6127898461327b565b613225565b9050828152602081018484840111156127a657600080fd5b6127b1848285613374565b509392505050565b6000813590506127c8816138bd565b92915050565b6000813590506127dd816138d4565b92915050565b6000813590506127f2816138eb565b92915050565b600081519050612807816138eb565b92915050565b600082601f83011261281e57600080fd5b813561282e84826020860161273d565b91505092915050565b600082601f83011261284857600080fd5b813561285884826020860161277b565b91505092915050565b60008135905061287081613902565b92915050565b60006020828403121561288857600080fd5b6000612896848285016127b9565b91505092915050565b600080604083850312156128b257600080fd5b60006128c0858286016127b9565b92505060206128d1858286016127b9565b9150509250929050565b6000806000606084860312156128f057600080fd5b60006128fe868287016127b9565b935050602061290f868287016127b9565b925050604061292086828701612861565b9150509250925092565b6000806000806080858703121561294057600080fd5b600061294e878288016127b9565b945050602061295f878288016127b9565b935050604061297087828801612861565b925050606085013567ffffffffffffffff81111561298d57600080fd5b6129998782880161280d565b91505092959194509250565b600080604083850312156129b857600080fd5b60006129c6858286016127b9565b92505060206129d7858286016127ce565b9150509250929050565b600080604083850312156129f457600080fd5b6000612a02858286016127b9565b9250506020612a1385828601612861565b9150509250929050565b600060208284031215612a2f57600080fd5b6000612a3d848285016127e3565b91505092915050565b600060208284031215612a5857600080fd5b6000612a66848285016127f8565b91505092915050565b600060208284031215612a8157600080fd5b600082013567ffffffffffffffff811115612a9b57600080fd5b612aa784828501612837565b91505092915050565b60008060408385031215612ac357600080fd5b600083013567ffffffffffffffff811115612add57600080fd5b612ae985828601612837565b925050602083013567ffffffffffffffff811115612b0657600080fd5b612b1285828601612837565b9150509250929050565b600060208284031215612b2e57600080fd5b6000612b3c84828501612861565b91505092915050565b600080600060608486031215612b5a57600080fd5b6000612b6886828701612861565b935050602084013567ffffffffffffffff811115612b8557600080fd5b612b9186828701612837565b925050604084013567ffffffffffffffff811115612bae57600080fd5b612bba86828701612837565b9150509250925092565b612bcd81613300565b82525050565b612bdc81613300565b82525050565b612beb81613312565b82525050565b6000612bfc826132ac565b612c0681856132c2565b9350612c16818560208601613383565b612c1f816134ef565b840191505092915050565b6000612c35826132b7565b612c3f81856132d3565b9350612c4f818560208601613383565b612c58816134ef565b840191505092915050565b6000612c6e826132b7565b612c7881856132e4565b9350612c88818560208601613383565b612c91816134ef565b840191505092915050565b6000612ca7826132b7565b612cb181856132f5565b9350612cc1818560208601613383565b80840191505092915050565b6000612cda602d836132e4565b9150612ce582613500565b604082019050919050565b6000612cfd6032836132e4565b9150612d088261354f565b604082019050919050565b6000612d206026836132e4565b9150612d2b8261359e565b604082019050919050565b6000612d436025836132e4565b9150612d4e826135ed565b604082019050919050565b6000612d66601c836132e4565b9150612d718261363c565b602082019050919050565b6000612d896024836132e4565b9150612d9482613665565b604082019050919050565b6000612dac6019836132e4565b9150612db7826136b4565b602082019050919050565b6000612dcf6029836132e4565b9150612dda826136dd565b604082019050919050565b6000612df26020836132e4565b9150612dfd8261372c565b602082019050919050565b6000612e156020836132e4565b9150612e2082613755565b602082019050919050565b6000612e386025836132e4565b9150612e438261377e565b604082019050919050565b6000612e5b6018836132e4565b9150612e66826137cd565b602082019050919050565b6000612e7e6021836132e4565b9150612e89826137f6565b604082019050919050565b6000612ea1603d836132e4565b9150612eac82613845565b604082019050919050565b6000612ec4600e836132e4565b9150612ecf82613894565b602082019050919050565b60006060830160008301518482036000860152612ef78282612c2a565b91505060208301518482036020860152612f118282612c2a565b9150506040830151612f266040860182612bc4565b508091505092915050565b612f3a8161336a565b82525050565b6000612f4c8285612c9c565b9150612f588284612c9c565b91508190509392505050565b6000602082019050612f796000830184612bd3565b92915050565b6000608082019050612f946000830187612bd3565b612fa16020830186612bd3565b612fae6040830185612f31565b8181036060830152612fc08184612bf1565b905095945050505050565b6000602082019050612fe06000830184612be2565b92915050565b600060208201905081810360008301526130008184612c63565b905092915050565b6000602082019050818103600083015261302181612ccd565b9050919050565b6000602082019050818103600083015261304181612cf0565b9050919050565b6000602082019050818103600083015261306181612d13565b9050919050565b6000602082019050818103600083015261308181612d36565b9050919050565b600060208201905081810360008301526130a181612d59565b9050919050565b600060208201905081810360008301526130c181612d7c565b9050919050565b600060208201905081810360008301526130e181612d9f565b9050919050565b6000602082019050818103600083015261310181612dc2565b9050919050565b6000602082019050818103600083015261312181612de5565b9050919050565b6000602082019050818103600083015261314181612e08565b9050919050565b6000602082019050818103600083015261316181612e2b565b9050919050565b6000602082019050818103600083015261318181612e4e565b9050919050565b600060208201905081810360008301526131a181612e71565b9050919050565b600060208201905081810360008301526131c181612e94565b9050919050565b600060208201905081810360008301526131e181612eb7565b9050919050565b600060208201905081810360008301526132028184612eda565b905092915050565b600060208201905061321f6000830184612f31565b92915050565b600061322f613240565b905061323b82826133e8565b919050565b6000604051905090565b600067ffffffffffffffff821115613265576132646134c0565b5b61326e826134ef565b9050602081019050919050565b600067ffffffffffffffff821115613296576132956134c0565b5b61329f826134ef565b9050602081019050919050565b600081519050919050565b600081519050919050565b600082825260208201905092915050565b600082825260208201905092915050565b600082825260208201905092915050565b600081905092915050565b600061330b8261334a565b9050919050565b60008115159050919050565b60007fffffffff0000000000000000000000000000000000000000000000000000000082169050919050565b600073ffffffffffffffffffffffffffffffffffffffff82169050919050565b6000819050919050565b82818337600083830152505050565b60005b838110156133a1578082015181840152602081019050613386565b838111156133b0576000848401525b50505050565b600060028204905060018216806133ce57607f821691505b602082108114156133e2576133e1613491565b5b50919050565b6133f1826134ef565b810181811067ffffffffffffffff821117156134105761340f6134c0565b5b80604052505050565b60006134248261336a565b91507fffffffffffffffffffffffffffffffffffffffffffffffffffffffffffffffff82141561345757613456613462565b5b600182019050919050565b7f4e487b7100000000000000000000000000000000000000000000000000000000600052601160045260246000fd5b7f4e487b7100000000000000000000000000000000000000000000000000000000600052602260045260246000fd5b7f4e487b7100000000000000000000000000000000000000000000000000000000600052604160045260246000fd5b6000601f19601f8301169050919050565b7f4552433732313a2063616c6c6572206973206e6f7420746f6b656e206f776e6560008201527f72206f7220617070726f76656400000000000000000000000000000000000000602082015250565b7f4552433732313a207472616e7366657220746f206e6f6e20455243373231526560008201527f63656976657220696d706c656d656e7465720000000000000000000000000000602082015250565b7f4f776e61626c653a206e6577206f776e657220697320746865207a65726f206160008201527f6464726573730000000000000000000000000000000000000000000000000000602082015250565b7f4552433732313a207472616e736665722066726f6d20696e636f72726563742060008201527f6f776e6572000000000000000000000000000000000000000000000000000000602082015250565b7f4552433732313a20746f6b656e20616c7265616479206d696e74656400000000600082015250565b7f4552433732313a207472616e7366657220746f20746865207a65726f2061646460008201527f7265737300000000000000000000000000000000000000000000000000000000602082015250565b7f4552433732313a20617070726f766520746f2063616c6c657200000000000000600082015250565b7f4552433732313a2061646472657373207a65726f206973206e6f74206120766160008201527f6c6964206f776e65720000000000000000000000000000000000000000000000602082015250565b7f4552433732313a206d696e7420746f20746865207a65726f2061646472657373600082015250565b7f4f776e61626c653a2063616c6c6572206973206e6f7420746865206f776e6572600082015250565b7f416363657373436f6e74726f6c3a2063616c6c6572206973206e6f7420616e2060008201527f61646d696e000000000000000000000000000000000000000000000000000000602082015250565b7f4552433732313a20696e76616c696420746f6b656e2049440000000000000000600082015250565b7f4552433732313a20617070726f76616c20746f2063757272656e74206f776e6560008201527f7200000000000000000000000000000000000000000000000000000000000000602082015250565b7f4552433732313a20617070726f76652063616c6c6572206973206e6f7420746f60008201527f6b656e206f776e6572206f7220617070726f76656420666f7220616c6c000000602082015250565b7f4e6f7420617574686f72697a6564000000000000000000000000000000000000600082015250565b6138c681613300565b81146138d157600080fd5b50565b6138dd81613312565b81146138e857600080fd5b50565b6138f48161331e565b81146138ff57600080fd5b50565b61390b8161336a565b811461391657600080fd5b5056fea264697066735822122045158172457c7e7b6cebb2c71b6510ec446c26e15728ba97e5ebef2ba818909164736f6c63430008010033",
  "immutableReferences": {},
  "source": "// SPDX-License-Identifier: MIT\r\npragma solidity ^0.8.0;\r\n\r\nimport \"@openzeppelin/contracts/token/ERC721/ERC721.sol\";\r\nimport \"./AccessControl.sol\";\r\n\r\ncontract FileStorage is ERC721, AccessControl {\r\n    uint256 private _tokenIdCounter;\r\n\r\n    struct FileInfo {\r\n        string name;\r\n        string ipfsHash;\r\n        address owner;\r\n    }\r\n\r\n    mapping(uint256 => FileInfo) private _fileInfo;\r\n\r\n    constructor() ERC721(\"FileStorage\", \"FST\") {}\r\n\r\n    function storeFile(string memory name, string memory ipfsHash) public returns (uint256) {\r\n        uint256 tokenId = _tokenIdCounter;\r\n        _mint(msg.sender, tokenId);\r\n        _fileInfo[tokenId] = FileInfo(name, ipfsHash, msg.sender);\r\n        _tokenIdCounter++;\r\n        return tokenId;\r\n    }\r\n\r\n    function getFileInfo(uint256 tokenId) public view returns (FileInfo memory) {\r\n        return _fileInfo[tokenId];\r\n    }\r\n\r\n    function updateFileInfo(uint256 tokenId, string memory newName, string memory newIpfsHash) public {\r\n        require(ownerOf(tokenId) == msg.sender || isAdmin(msg.sender), \"Not authorized\");\r\n        _fileInfo[tokenId].name = newName;\r\n        _fileInfo[tokenId].ipfsHash = newIpfsHash;\r\n    }\r\n\r\n    function deleteFile(uint256 tokenId) public {\r\n        require(ownerOf(tokenId) == msg.sender || isAdmin(msg.sender), \"Not authorized\");\r\n        _burn(tokenId);\r\n        delete _fileInfo[tokenId];\r\n    }\r\n\r\n    function getFileHash(uint256 fileId) public view override returns (string memory) {\r\n        return _fileInfo[fileId].ipfsHash;\r\n    }\r\n}",
  "sourcePath": "C:\\Users\\GAUTHAM\\Desktop\\FS\\mdos\\contracts\\FileStorage.sol",
  "compiler": {
    "name": "solc",
    "version": "0.8.1+commit.df193b15.Emscripten.clang"
  },
  "schemaVersion": "3.4.13",
  "updatedAt": "2023-05-04T07:17:32.260Z",
  "devdoc": {
    "kind": "dev",
    "methods": {
      "approve(address,uint256)": {
        "details": "See {IERC721-approve}."
      },
      "balanceOf(address)": {
        "details": "See {IERC721-balanceOf}."
      },
      "getApproved(uint256)": {
        "details": "See {IERC721-getApproved}."
      },
      "isApprovedForAll(address,address)": {
        "details": "See {IERC721-isApprovedForAll}."
      },
      "name()": {
        "details": "See {IERC721Metadata-name}."
      },
      "owner()": {
        "details": "Returns the address of the current owner."
      },
      "ownerOf(uint256)": {
        "details": "See {IERC721-ownerOf}."
      },
      "renounceOwnership()": {
        "details": "Leaves the contract without owner. It will not be possible to call `onlyOwner` functions anymore. Can only be called by the current owner. NOTE: Renouncing ownership will leave the contract without an owner, thereby removing any functionality that is only available to the owner."
      },
      "safeTransferFrom(address,address,uint256)": {
        "details": "See {IERC721-safeTransferFrom}."
      },
      "safeTransferFrom(address,address,uint256,bytes)": {
        "details": "See {IERC721-safeTransferFrom}."
      },
      "setApprovalForAll(address,bool)": {
        "details": "See {IERC721-setApprovalForAll}."
      },
      "supportsInterface(bytes4)": {
        "details": "See {IERC165-supportsInterface}."
      },
      "symbol()": {
        "details": "See {IERC721Metadata-symbol}."
      },
      "tokenURI(uint256)": {
        "details": "See {IERC721Metadata-tokenURI}."
      },
      "transferFrom(address,address,uint256)": {
        "details": "See {IERC721-transferFrom}."
      },
      "transferOwnership(address)": {
        "details": "Transfers ownership of the contract to a new account (`newOwner`). Can only be called by the current owner."
      }
    },
    "version": 1
  },
  "userdoc": {
    "kind": "user",
    "methods": {},
    "version": 1
  }
}