{
  "contractName": "Profile",
  "abi": [
    {
      "inputs": [
        {
          "internalType": "string",
          "name": "name",
          "type": "string"
        },
        {
          "internalType": "string",
          "name": "email",
          "type": "string"
        }
      ],
      "name": "createUserProfile",
      "outputs": [],
      "stateMutability": "nonpayable",
      "type": "function"
    },
    {
      "inputs": [
        {
          "internalType": "address",
          "name": "userAddress",
          "type": "address"
        }
      ],
      "name": "getUserProfile",
      "outputs": [
        {
          "components": [
            {
              "internalType": "string",
              "name": "name",
              "type": "string"
            },
            {
              "internalType": "string",
              "name": "email",
              "type": "string"
            }
          ],
          "internalType": "struct Profile.UserProfile",
          "name": "",
          "type": "tuple"
        }
      ],
      "stateMutability": "view",
      "type": "function"
    }
  ],
  "bytecode": "0x608060405234801561001057600080fd5b5061070a806100206000396000f3fe608060405234801561001057600080fd5b50600436106100365760003560e01c8063987ee1561461003b578063dcc2179b1461006b575b600080fd5b610055600480360381019061005091906103d1565b610087565b60405161006291906104e3565b60405180910390f35b610085600480360381019061008091906103fa565b610203565b005b61008f610297565b6000808373ffffffffffffffffffffffffffffffffffffffff1673ffffffffffffffffffffffffffffffffffffffff1681526020019081526020016000206040518060400160405290816000820180546100e8906105eb565b80601f0160208091040260200160405190810160405280929190818152602001828054610114906105eb565b80156101615780601f1061013657610100808354040283529160200191610161565b820191906000526020600020905b81548152906001019060200180831161014457829003601f168201915b5050505050815260200160018201805461017a906105eb565b80601f01602080910402602001604051908101604052809291908181526020018280546101a6906105eb565b80156101f35780601f106101c8576101008083540402835291602001916101f3565b820191906000526020600020905b8154815290600101906020018083116101d657829003601f168201915b5050505050815250509050919050565b6040518060400160405280838152602001828152506000803373ffffffffffffffffffffffffffffffffffffffff1673ffffffffffffffffffffffffffffffffffffffff16815260200190815260200160002060008201518160000190805190602001906102729291906102b1565b50602082015181600101908051906020019061028f9291906102b1565b509050505050565b604051806040016040528060608152602001606081525090565b8280546102bd906105eb565b90600052602060002090601f0160209004810192826102df5760008555610326565b82601f106102f857805160ff1916838001178555610326565b82800160010185558215610326579182015b8281111561032557825182559160200191906001019061030a565b5b5090506103339190610337565b5090565b5b80821115610350576000816000905550600101610338565b5090565b60006103676103628461052a565b610505565b90508281526020810184848401111561037f57600080fd5b61038a8482856105a9565b509392505050565b6000813590506103a1816106bd565b92915050565b600082601f8301126103b857600080fd5b81356103c8848260208601610354565b91505092915050565b6000602082840312156103e357600080fd5b60006103f184828501610392565b91505092915050565b6000806040838503121561040d57600080fd5b600083013567ffffffffffffffff81111561042757600080fd5b610433858286016103a7565b925050602083013567ffffffffffffffff81111561045057600080fd5b61045c858286016103a7565b9150509250929050565b60006104718261055b565b61047b8185610566565b935061048b8185602086016105b8565b610494816106ac565b840191505092915050565b600060408301600083015184820360008601526104bc8282610466565b915050602083015184820360208601526104d68282610466565b9150508091505092915050565b600060208201905081810360008301526104fd818461049f565b905092915050565b600061050f610520565b905061051b828261061d565b919050565b6000604051905090565b600067ffffffffffffffff8211156105455761054461067d565b5b61054e826106ac565b9050602081019050919050565b600081519050919050565b600082825260208201905092915050565b600061058282610589565b9050919050565b600073ffffffffffffffffffffffffffffffffffffffff82169050919050565b82818337600083830152505050565b60005b838110156105d65780820151818401526020810190506105bb565b838111156105e5576000848401525b50505050565b6000600282049050600182168061060357607f821691505b602082108114156106175761061661064e565b5b50919050565b610626826106ac565b810181811067ffffffffffffffff821117156106455761064461067d565b5b80604052505050565b7f4e487b7100000000000000000000000000000000000000000000000000000000600052602260045260246000fd5b7f4e487b7100000000000000000000000000000000000000000000000000000000600052604160045260246000fd5b6000601f19601f8301169050919050565b6106c681610577565b81146106d157600080fd5b5056fea2646970667358221220a37726fc1c438e6dcc4009854ea7824e6722138bbdddb923e3af2939ccaec5af64736f6c63430008010033",
  "immutableReferences": {},
  "source": "// SPDX-License-Identifier: MIT\r\npragma solidity ^0.8.0;\r\n\r\ncontract Profile {\r\n    struct UserProfile {\r\n        string name;\r\n        string email;\r\n    }\r\n\r\n    mapping(address => UserProfile) private _userProfiles;\r\n\r\n    function createUserProfile(string memory name, string memory email) public {\r\n        _userProfiles[msg.sender] = UserProfile(name, email);\r\n    }\r\n\r\n    function getUserProfile(address userAddress) public view returns (UserProfile memory) {\r\n        return _userProfiles[userAddress];\r\n    }\r\n}",
  "sourcePath": "C:\\Users\\GAUTHAM\\Desktop\\FS\\mdos\\contracts\\Profile.sol",
  "compiler": {
    "name": "solc",
    "version": "0.8.1+commit.df193b15.Emscripten.clang"
  },
  "schemaVersion": "3.4.13",
  "updatedAt": "2023-05-04T07:17:32.285Z",
  "devdoc": {
    "kind": "dev",
    "methods": {},
    "version": 1
  },
  "userdoc": {
    "kind": "user",
    "methods": {},
    "version": 1
  }
}