{
  "contractName": "Project",
  "abi": [
    {
      "anonymous": false,
      "inputs": [
        {
          "indexed": true,
          "internalType": "address",
          "name": "account",
          "type": "address"
        }
      ],
      "name": "AdminAdded",
      "type": "event"
    },
    {
      "anonymous": false,
      "inputs": [
        {
          "indexed": true,
          "internalType": "address",
          "name": "account",
          "type": "address"
        }
      ],
      "name": "AdminRemoved",
      "type": "event"
    },
    {
      "anonymous": false,
      "inputs": [
        {
          "indexed": true,
          "internalType": "uint256",
          "name": "fileId",
          "type": "uint256"
        },
        {
          "indexed": false,
          "internalType": "string",
          "name": "ipfsHash",
          "type": "string"
        }
      ],
      "name": "FileHashAdded",
      "type": "event"
    },
    {
      "anonymous": false,
      "inputs": [
        {
          "indexed": true,
          "internalType": "address",
          "name": "previousOwner",
          "type": "address"
        },
        {
          "indexed": true,
          "internalType": "address",
          "name": "newOwner",
          "type": "address"
        }
      ],
      "name": "OwnershipTransferred",
      "type": "event"
    },
    {
      "inputs": [
        {
          "internalType": "address",
          "name": "account",
          "type": "address"
        }
      ],
      "name": "addAdmin",
      "outputs": [],
      "stateMutability": "nonpayable",
      "type": "function"
    },
    {
      "inputs": [
        {
          "internalType": "string",
          "name": "ipfsHash",
          "type": "string"
        }
      ],
      "name": "addFileHash",
      "outputs": [
        {
          "internalType": "uint256",
          "name": "",
          "type": "uint256"
        }
      ],
      "stateMutability": "nonpayable",
      "type": "function"
    },
    {
      "inputs": [
        {
          "internalType": "uint256",
          "name": "",
          "type": "uint256"
        }
      ],
      "name": "fileHashes",
      "outputs": [
        {
          "internalType": "string",
          "name": "",
          "type": "string"
        }
      ],
      "stateMutability": "view",
      "type": "function"
    },
    {
      "inputs": [
        {
          "internalType": "uint256",
          "name": "fileId",
          "type": "uint256"
        }
      ],
      "name": "getFileHash",
      "outputs": [
        {
          "internalType": "string",
          "name": "",
          "type": "string"
        }
      ],
      "stateMutability": "view",
      "type": "function"
    },
    {
      "inputs": [
        {
          "internalType": "address",
          "name": "account",
          "type": "address"
        }
      ],
      "name": "isAdmin",
      "outputs": [
        {
          "internalType": "bool",
          "name": "",
          "type": "bool"
        }
      ],
      "stateMutability": "view",
      "type": "function"
    },
    {
      "inputs": [],
      "name": "owner",
      "outputs": [
        {
          "internalType": "address",
          "name": "",
          "type": "address"
        }
      ],
      "stateMutability": "view",
      "type": "function"
    },
    {
      "inputs": [
        {
          "internalType": "address",
          "name": "account",
          "type": "address"
        }
      ],
      "name": "removeAdmin",
      "outputs": [],
      "stateMutability": "nonpayable",
      "type": "function"
    },
    {
      "inputs": [],
      "name": "renounceOwnership",
      "outputs": [],
      "stateMutability": "nonpayable",
      "type": "function"
    },
    {
      "inputs": [
        {
          "internalType": "address",
          "name": "newOwner",
          "type": "address"
        }
      ],
      "name": "transferOwnership",
      "outputs": [],
      "stateMutability": "nonpayable",
      "type": "function"
    },
    {
      "inputs": [
        {
          "internalType": "string",
          "name": "name",
          "type": "string"
        },
        {
          "internalType": "string",
          "name": "description",
          "type": "string"
        },
        {
          "internalType": "string",
          "name": "ipfsHash",
          "type": "string"
        }
      ],
      "name": "createProject",
      "outputs": [
        {
          "internalType": "uint256",
          "name": "",
          "type": "uint256"
        }
      ],
      "stateMutability": "nonpayable",
      "type": "function"
    },
    {
      "inputs": [
        {
          "internalType": "uint256",
          "name": "projectId",
          "type": "uint256"
        },
        {
          "internalType": "address",
          "name": "member",
          "type": "address"
        }
      ],
      "name": "addMember",
      "outputs": [],
      "stateMutability": "nonpayable",
      "type": "function"
    },
    {
      "inputs": [
        {
          "internalType": "uint256",
          "name": "projectId",
          "type": "uint256"
        },
        {
          "internalType": "address",
          "name": "member",
          "type": "address"
        }
      ],
      "name": "removeMember",
      "outputs": [],
      "stateMutability": "nonpayable",
      "type": "function"
    },
    {
      "inputs": [
        {
          "internalType": "uint256",
          "name": "projectId",
          "type": "uint256"
        },
        {
          "internalType": "string",
          "name": "newName",
          "type": "string"
        },
        {
          "internalType": "string",
          "name": "newDescription",
          "type": "string"
        },
        {
          "internalType": "string",
          "name": "newIpfsHash",
          "type": "string"
        }
      ],
      "name": "updateProjectInfo",
      "outputs": [],
      "stateMutability": "nonpayable",
      "type": "function"
    },
    {
      "inputs": [
        {
          "internalType": "uint256",
          "name": "projectId",
          "type": "uint256"
        }
      ],
      "name": "getProjectInfo",
      "outputs": [
        {
          "components": [
            {
              "internalType": "string",
              "name": "name",
              "type": "string"
            },
            {
              "internalType": "string",
              "name": "description",
              "type": "string"
            },
            {
              "internalType": "address[]",
              "name": "members",
              "type": "address[]"
            },
            {
              "internalType": "string",
              "name": "ipfsHash",
              "type": "string"
            }
          ],
          "internalType": "struct Project.ProjectInfo",
          "name": "",
          "type": "tuple"
        }
      ],
      "stateMutability": "view",
      "type": "function"
    },
    {
      "inputs": [
        {
          "internalType": "uint256",
          "name": "projectId",
          "type": "uint256"
        },
        {
          "internalType": "address",
          "name": "member",
          "type": "address"
        }
      ],
      "name": "isProjectMember",
      "outputs": [
        {
          "internalType": "bool",
          "name": "",
          "type": "bool"
        }
      ],
      "stateMutability": "view",
      "type": "function"
    }
  ],
  "bytecode": "0x608060405234801561001057600080fd5b5061002d61002261003a60201b60201c565b61004260201b60201c565b6000600381905550610106565b600033905090565b60008060009054906101000a900473ffffffffffffffffffffffffffffffffffffffff169050816000806101000a81548173ffffffffffffffffffffffffffffffffffffffff021916908373ffffffffffffffffffffffffffffffffffffffff1602179055508173ffffffffffffffffffffffffffffffffffffffff168173ffffffffffffffffffffffffffffffffffffffff167f8be0079c531659141344cd1fd0a4f28419497f9722a3daafe3b4186f6b6457e060405160405180910390a35050565b61207b80620001166000396000f3fe608060405234801561001057600080fd5b50600436106100f55760003560e01c80638da5cb5b11610097578063cf7be6ec11610066578063cf7be6ec1461026e578063eb1311351461029e578063f2fde38b146102ce578063fabf5968146102ea576100f5565b80638da5cb5b146101d4578063ba89949e146101f2578063c110f4c914610222578063c67d0b8514610252576100f5565b80636be7658b116100d35780636be7658b146101765780637048027514610192578063715018a6146101ae57806374d0a676146101b8576100f5565b80631785f53c146100fa57806324d7806c14610116578063600c391114610146575b600080fd5b610114600480360381019061010f91906116a9565b61031a565b005b610130600480360381019061012b91906116a9565b61032e565b60405161013d9190611b20565b60405180910390f35b610160600480360381019061015b91906117d3565b610384565b60405161016d9190611b20565b60405180910390f35b610190600480360381019061018b91906117d3565b6103ec565b005b6101ac60048036038101906101a791906116a9565b610816565b005b6101b661082a565b005b6101d260048036038101906101cd91906117d3565b61083e565b005b6101dc6109bf565b6040516101e99190611b05565b60405180910390f35b61020c600480360381019061020791906116d2565b6109e8565b6040516102199190611c1f565b60405180910390f35b61023c600480360381019061023791906117aa565b610aba565b6040516102499190611b3b565b60405180910390f35b61026c6004803603810190610267919061180f565b610b5a565b005b61028860048036038101906102839190611713565b610c7e565b6040516102959190611c1f565b60405180910390f35b6102b860048036038101906102b391906117aa565b610ea3565b6040516102c59190611b3b565b60405180910390f35b6102e860048036038101906102e391906116a9565b610f48565b005b61030460048036038101906102ff91906117aa565b610fcc565b6040516103119190611bfd565b60405180910390f35b61032261123d565b61032b816112bb565b50565b6000600160008373ffffffffffffffffffffffffffffffffffffffff1673ffffffffffffffffffffffffffffffffffffffff16815260200190815260200160002060009054906101000a900460ff169050919050565b60006006600084815260200190815260200160002060008373ffffffffffffffffffffffffffffffffffffffff1673ffffffffffffffffffffffffffffffffffffffff16815260200190815260200160002060009054906101000a900460ff16905092915050565b6006600083815260200190815260200160002060003373ffffffffffffffffffffffffffffffffffffffff1673ffffffffffffffffffffffffffffffffffffffff16815260200190815260200160002060009054906101000a900460ff16610489576040517f08c379a000000000000000000000000000000000000000000000000000000000815260040161048090611b9d565b60405180910390fd5b3373ffffffffffffffffffffffffffffffffffffffff168173ffffffffffffffffffffffffffffffffffffffff1614156104f8576040517f08c379a00000000000000000000000000000000000000000000000000000000081526004016104ef90611b7d565b60405180910390fd5b60006006600084815260200190815260200160002060008373ffffffffffffffffffffffffffffffffffffffff1673ffffffffffffffffffffffffffffffffffffffff16815260200190815260200160002060006101000a81548160ff02191690831515021790555060008060005b6005600086815260200190815260200160002060020180549050811015610653578373ffffffffffffffffffffffffffffffffffffffff166005600087815260200190815260200160002060020182815481106105ed577f4e487b7100000000000000000000000000000000000000000000000000000000600052603260045260246000fd5b9060005260206000200160009054906101000a900473ffffffffffffffffffffffffffffffffffffffff1673ffffffffffffffffffffffffffffffffffffffff1614156106405780925060019150610653565b808061064b90611e17565b915050610567565b5080156108105760056000858152602001908152602001600020600201600160056000878152602001908152602001600020600201805490506106969190611cf6565b815481106106cd577f4e487b7100000000000000000000000000000000000000000000000000000000600052603260045260246000fd5b9060005260206000200160009054906101000a900473ffffffffffffffffffffffffffffffffffffffff16600560008681526020019081526020016000206002018381548110610746577f4e487b7100000000000000000000000000000000000000000000000000000000600052603260045260246000fd5b9060005260206000200160006101000a81548173ffffffffffffffffffffffffffffffffffffffff021916908373ffffffffffffffffffffffffffffffffffffffff160217905550600560008581526020019081526020016000206002018054806107da577f4e487b7100000000000000000000000000000000000000000000000000000000600052603160045260246000fd5b6001900381819060005260206000200160006101000a81549073ffffffffffffffffffffffffffffffffffffffff021916905590555b50505050565b61081e61123d565b61082781611359565b50565b61083261123d565b61083c60006113f6565b565b6006600083815260200190815260200160002060003373ffffffffffffffffffffffffffffffffffffffff1673ffffffffffffffffffffffffffffffffffffffff16815260200190815260200160002060009054906101000a900460ff166108db576040517f08c379a00000000000000000000000000000000000000000000000000000000081526004016108d290611b9d565b60405180910390fd5b60016006600084815260200190815260200160002060008373ffffffffffffffffffffffffffffffffffffffff1673ffffffffffffffffffffffffffffffffffffffff16815260200190815260200160002060006101000a81548160ff02191690831515021790555060056000838152602001908152602001600020600201819080600181540180825580915050600190039060005260206000200160009091909190916101000a81548173ffffffffffffffffffffffffffffffffffffffff021916908373ffffffffffffffffffffffffffffffffffffffff1602179055505050565b60008060009054906101000a900473ffffffffffffffffffffffffffffffffffffffff16905090565b60006109f33361032e565b610a32576040517f08c379a0000000000000000000000000000000000000000000000000000000008152600401610a2990611bdd565b60405180910390fd5b6000600354905082600260008381526020019081526020016000209080519060200190610a609291906114c2565b5060036000815480929190610a7490611e17565b9190505550807fd14e25ed71a404367461d2269b2413ef73b82aae51eaf6f172af69e3bcc32ee384604051610aa99190611b3b565b60405180910390a280915050919050565b60026020528060005260406000206000915090508054610ad990611db4565b80601f0160208091040260200160405190810160405280929190818152602001828054610b0590611db4565b8015610b525780601f10610b2757610100808354040283529160200191610b52565b820191906000526020600020905b815481529060010190602001808311610b3557829003601f168201915b505050505081565b6006600085815260200190815260200160002060003373ffffffffffffffffffffffffffffffffffffffff1673ffffffffffffffffffffffffffffffffffffffff16815260200190815260200160002060009054906101000a900460ff16610bf7576040517f08c379a0000000000000000000000000000000000000000000000000000000008152600401610bee90611b9d565b60405180910390fd5b82600560008681526020019081526020016000206000019080519060200190610c219291906114c2565b5081600560008681526020019081526020016000206001019080519060200190610c4c9291906114c2565b5080600560008681526020019081526020016000206003019080519060200190610c779291906114c2565b5050505050565b60008060045490506040518060800160405280868152602001858152602001600067ffffffffffffffff811115610cde577f4e487b7100000000000000000000000000000000000000000000000000000000600052604160045260246000fd5b604051908082528060200260200182016040528015610d0c5781602001602082028036833780820191505090505b50815260200184815250600560008381526020019081526020016000206000820151816000019080519060200190610d459291906114c2565b506020820151816001019080519060200190610d629291906114c2565b506040820151816002019080519060200190610d7f929190611548565b506060820151816003019080519060200190610d9c9291906114c2565b5090505060016006600083815260200190815260200160002060003373ffffffffffffffffffffffffffffffffffffffff1673ffffffffffffffffffffffffffffffffffffffff16815260200190815260200160002060006101000a81548160ff02191690831515021790555060056000828152602001908152602001600020600201339080600181540180825580915050600190039060005260206000200160009091909190916101000a81548173ffffffffffffffffffffffffffffffffffffffff021916908373ffffffffffffffffffffffffffffffffffffffff16021790555060046000815480929190610e9390611e17565b9190505550809150509392505050565b6060600260008381526020019081526020016000208054610ec390611db4565b80601f0160208091040260200160405190810160405280929190818152602001828054610eef90611db4565b8015610f3c5780601f10610f1157610100808354040283529160200191610f3c565b820191906000526020600020905b815481529060010190602001808311610f1f57829003601f168201915b50505050509050919050565b610f5061123d565b600073ffffffffffffffffffffffffffffffffffffffff168173ffffffffffffffffffffffffffffffffffffffff161415610fc0576040517f08c379a0000000000000000000000000000000000000000000000000000000008152600401610fb790611b5d565b60405180910390fd5b610fc9816113f6565b50565b610fd46115d2565b6005600083815260200190815260200160002060405180608001604052908160008201805461100290611db4565b80601f016020809104026020016040519081016040528092919081815260200182805461102e90611db4565b801561107b5780601f106110505761010080835404028352916020019161107b565b820191906000526020600020905b81548152906001019060200180831161105e57829003601f168201915b5050505050815260200160018201805461109490611db4565b80601f01602080910402602001604051908101604052809291908181526020018280546110c090611db4565b801561110d5780601f106110e25761010080835404028352916020019161110d565b820191906000526020600020905b8154815290600101906020018083116110f057829003601f168201915b505050505081526020016002820180548060200260200160405190810160405280929190818152602001828054801561119b57602002820191906000526020600020905b8160009054906101000a900473ffffffffffffffffffffffffffffffffffffffff1673ffffffffffffffffffffffffffffffffffffffff1681526020019060010190808311611151575b505050505081526020016003820180546111b490611db4565b80601f01602080910402602001604051908101604052809291908181526020018280546111e090611db4565b801561122d5780601f106112025761010080835404028352916020019161122d565b820191906000526020600020905b81548152906001019060200180831161121057829003601f168201915b5050505050815250509050919050565b6112456114ba565b73ffffffffffffffffffffffffffffffffffffffff166112636109bf565b73ffffffffffffffffffffffffffffffffffffffff16146112b9576040517f08c379a00000000000000000000000000000000000000000000000000000000081526004016112b090611bbd565b60405180910390fd5b565b6000600160008373ffffffffffffffffffffffffffffffffffffffff1673ffffffffffffffffffffffffffffffffffffffff16815260200190815260200160002060006101000a81548160ff0219169083151502179055508073ffffffffffffffffffffffffffffffffffffffff167fa3b62bc36326052d97ea62d63c3d60308ed4c3ea8ac079dd8499f1e9c4f80c0f60405160405180910390a250565b60018060008373ffffffffffffffffffffffffffffffffffffffff1673ffffffffffffffffffffffffffffffffffffffff16815260200190815260200160002060006101000a81548160ff0219169083151502179055508073ffffffffffffffffffffffffffffffffffffffff167f44d6d25963f097ad14f29f06854a01f575648a1ef82f30e562ccd3889717e33960405160405180910390a250565b60008060009054906101000a900473ffffffffffffffffffffffffffffffffffffffff169050816000806101000a81548173ffffffffffffffffffffffffffffffffffffffff021916908373ffffffffffffffffffffffffffffffffffffffff1602179055508173ffffffffffffffffffffffffffffffffffffffff168173ffffffffffffffffffffffffffffffffffffffff167f8be0079c531659141344cd1fd0a4f28419497f9722a3daafe3b4186f6b6457e060405160405180910390a35050565b600033905090565b8280546114ce90611db4565b90600052602060002090601f0160209004810192826114f05760008555611537565b82601f1061150957805160ff1916838001178555611537565b82800160010185558215611537579182015b8281111561153657825182559160200191906001019061151b565b5b50905061154491906115fa565b5090565b8280548282559060005260206000209081019282156115c1579160200282015b828111156115c05782518260006101000a81548173ffffffffffffffffffffffffffffffffffffffff021916908373ffffffffffffffffffffffffffffffffffffffff16021790555091602001919060010190611568565b5b5090506115ce91906115fa565b5090565b6040518060800160405280606081526020016060815260200160608152602001606081525090565b5b808211156116135760008160009055506001016115fb565b5090565b600061162a61162584611c5f565b611c3a565b90508281526020810184848401111561164257600080fd5b61164d848285611d72565b509392505050565b60008135905061166481612017565b92915050565b600082601f83011261167b57600080fd5b813561168b848260208601611617565b91505092915050565b6000813590506116a38161202e565b92915050565b6000602082840312156116bb57600080fd5b60006116c984828501611655565b91505092915050565b6000602082840312156116e457600080fd5b600082013567ffffffffffffffff8111156116fe57600080fd5b61170a8482850161166a565b91505092915050565b60008060006060848603121561172857600080fd5b600084013567ffffffffffffffff81111561174257600080fd5b61174e8682870161166a565b935050602084013567ffffffffffffffff81111561176b57600080fd5b6117778682870161166a565b925050604084013567ffffffffffffffff81111561179457600080fd5b6117a08682870161166a565b9150509250925092565b6000602082840312156117bc57600080fd5b60006117ca84828501611694565b91505092915050565b600080604083850312156117e657600080fd5b60006117f485828601611694565b925050602061180585828601611655565b9150509250929050565b6000806000806080858703121561182557600080fd5b600061183387828801611694565b945050602085013567ffffffffffffffff81111561185057600080fd5b61185c8782880161166a565b935050604085013567ffffffffffffffff81111561187957600080fd5b6118858782880161166a565b925050606085013567ffffffffffffffff8111156118a257600080fd5b6118ae8782880161166a565b91505092959194509250565b60006118c683836118d2565b60208301905092915050565b6118db81611d2a565b82525050565b6118ea81611d2a565b82525050565b60006118fb82611ca0565b6119058185611cc3565b935061191083611c90565b8060005b8381101561194157815161192888826118ba565b975061193383611cb6565b925050600181019050611914565b5085935050505092915050565b61195781611d3c565b82525050565b600061196882611cab565b6119728185611cd4565b9350611982818560208601611d81565b61198b81611eed565b840191505092915050565b60006119a182611cab565b6119ab8185611ce5565b93506119bb818560208601611d81565b6119c481611eed565b840191505092915050565b60006119dc602683611ce5565b91506119e782611efe565b604082019050919050565b60006119ff601683611ce5565b9150611a0a82611f4d565b602082019050919050565b6000611a22601483611ce5565b9150611a2d82611f76565b602082019050919050565b6000611a45602083611ce5565b9150611a5082611f9f565b602082019050919050565b6000611a68602583611ce5565b9150611a7382611fc8565b604082019050919050565b60006080830160008301518482036000860152611a9b828261195d565b91505060208301518482036020860152611ab5828261195d565b91505060408301518482036040860152611acf82826118f0565b91505060608301518482036060860152611ae9828261195d565b9150508091505092915050565b611aff81611d68565b82525050565b6000602082019050611b1a60008301846118e1565b92915050565b6000602082019050611b35600083018461194e565b92915050565b60006020820190508181036000830152611b558184611996565b905092915050565b60006020820190508181036000830152611b76816119cf565b9050919050565b60006020820190508181036000830152611b96816119f2565b9050919050565b60006020820190508181036000830152611bb681611a15565b9050919050565b60006020820190508181036000830152611bd681611a38565b9050919050565b60006020820190508181036000830152611bf681611a5b565b9050919050565b60006020820190508181036000830152611c178184611a7e565b905092915050565b6000602082019050611c346000830184611af6565b92915050565b6000611c44611c55565b9050611c508282611de6565b919050565b6000604051905090565b600067ffffffffffffffff821115611c7a57611c79611ebe565b5b611c8382611eed565b9050602081019050919050565b6000819050602082019050919050565b600081519050919050565b600081519050919050565b6000602082019050919050565b600082825260208201905092915050565b600082825260208201905092915050565b600082825260208201905092915050565b6000611d0182611d68565b9150611d0c83611d68565b925082821015611d1f57611d1e611e60565b5b828203905092915050565b6000611d3582611d48565b9050919050565b60008115159050919050565b600073ffffffffffffffffffffffffffffffffffffffff82169050919050565b6000819050919050565b82818337600083830152505050565b60005b83811015611d9f578082015181840152602081019050611d84565b83811115611dae576000848401525b50505050565b60006002820490506001821680611dcc57607f821691505b60208210811415611de057611ddf611e8f565b5b50919050565b611def82611eed565b810181811067ffffffffffffffff82111715611e0e57611e0d611ebe565b5b80604052505050565b6000611e2282611d68565b91507fffffffffffffffffffffffffffffffffffffffffffffffffffffffffffffffff821415611e5557611e54611e60565b5b600182019050919050565b7f4e487b7100000000000000000000000000000000000000000000000000000000600052601160045260246000fd5b7f4e487b7100000000000000000000000000000000000000000000000000000000600052602260045260246000fd5b7f4e487b7100000000000000000000000000000000000000000000000000000000600052604160045260246000fd5b6000601f19601f8301169050919050565b7f4f776e61626c653a206e6577206f776e657220697320746865207a65726f206160008201527f6464726573730000000000000000000000000000000000000000000000000000602082015250565b7f43616e6e6f742072656d6f766520796f757273656c6600000000000000000000600082015250565b7f4e6f7420612070726f6a656374206d656d626572000000000000000000000000600082015250565b7f4f776e61626c653a2063616c6c6572206973206e6f7420746865206f776e6572600082015250565b7f416363657373436f6e74726f6c3a2063616c6c6572206973206e6f7420616e2060008201527f61646d696e000000000000000000000000000000000000000000000000000000602082015250565b61202081611d2a565b811461202b57600080fd5b50565b61203781611d68565b811461204257600080fd5b5056fea26469706673582212205b79332ab1bb3f0c7787f7134efab733785860ce56ca3a1d079013be5fddc06064736f6c63430008010033",
  "immutableReferences": {},
  "source": "// SPDX-License-Identifier: MIT\r\npragma solidity ^0.8.0;\r\n\r\nimport \"./AccessControl.sol\";\r\n\r\ncontract Project is AccessControl {\r\n    uint256 private _projectIdCounter;\r\n\r\n    struct ProjectInfo {\r\n        string name;\r\n        string description;\r\n        address[] members;\r\n        string ipfsHash;\r\n    }\r\n\r\n    mapping(uint256 => ProjectInfo) private _projects;\r\n    mapping(uint256 => mapping(address => bool)) private _projectMembers;\r\n\r\n    function createProject(string memory name, string memory description, string memory ipfsHash) public returns (uint256) {\r\n        uint256 projectId = _projectIdCounter;\r\n        _projects[projectId] = ProjectInfo(name, description, new address[](0), ipfsHash);\r\n        _projectMembers[projectId][msg.sender] = true;\r\n        _projects[projectId].members.push(msg.sender);\r\n        _projectIdCounter++;\r\n        return projectId;\r\n    }\r\n\r\n    function addMember(uint256 projectId, address member) public {\r\n        require(_projectMembers[projectId][msg.sender], \"Not a project member\");\r\n        _projectMembers[projectId][member] = true;\r\n        _projects[projectId].members.push(member);\r\n    }\r\n\r\n    function removeMember(uint256 projectId, address member) public {\r\n        require(_projectMembers[projectId][msg.sender], \"Not a project member\");\r\n        require(member != msg.sender, \"Cannot remove yourself\");\r\n        _projectMembers[projectId][member] = false;\r\n\r\n        uint256 index;\r\n        bool found;\r\n        for (uint256 i = 0; i < _projects[projectId].members.length; i++) {\r\n            if (_projects[projectId].members[i] == member) {\r\n                index = i;\r\n                found = true;\r\n                break;\r\n            }\r\n        }\r\n\r\n        if (found) {\r\n            _projects[projectId].members[index] = _projects[projectId].members[_projects[projectId].members.length - 1];\r\n            _projects[projectId].members.pop();\r\n        }\r\n    }\r\n\r\n    function updateProjectInfo(uint256 projectId, string memory newName, string memory newDescription, string memory newIpfsHash) public {\r\n        require(_projectMembers[projectId][msg.sender], \"Not a project member\");\r\n        _projects[projectId].name = newName;\r\n        _projects[projectId].description = newDescription;\r\n        _projects[projectId].ipfsHash = newIpfsHash;\r\n    }\r\n\r\n    function getProjectInfo(uint256 projectId) public view returns (ProjectInfo memory) {\r\n        return _projects[projectId];\r\n    }\r\n\r\n    function isProjectMember(uint256 projectId, address member) public view returns (bool) {\r\n        return _projectMembers[projectId][member];\r\n    }\r\n}",
  "sourcePath": "C:\\Users\\GAUTHAM\\Desktop\\FS\\mdos\\contracts\\Project.sol",
  "compiler": {
    "name": "solc",
    "version": "0.8.1+commit.df193b15.Emscripten.clang"
  },
  "schemaVersion": "3.4.13",
  "updatedAt": "2023-05-04T07:17:32.291Z",
  "devdoc": {
    "kind": "dev",
    "methods": {
      "owner()": {
        "details": "Returns the address of the current owner."
      },
      "renounceOwnership()": {
        "details": "Leaves the contract without owner. It will not be possible to call `onlyOwner` functions anymore. Can only be called by the current owner. NOTE: Renouncing ownership will leave the contract without an owner, thereby removing any functionality that is only available to the owner."
      },
      "transferOwnership(address)": {
        "details": "Transfers ownership of the contract to a new account (`newOwner`). Can only be called by the current owner."
      }
    },
    "version": 1
  },
  "userdoc": {
    "kind": "user",
    "methods": {},
    "version": 1
  }
}