{
  "contractName": "StudentGroup",
  "abi": [
    {
      "anonymous": false,
      "inputs": [
        {
          "indexed": true,
          "internalType": "address",
          "name": "account",
          "type": "address"
        }
      ],
      "name": "AdminAdded",
      "type": "event"
    },
    {
      "anonymous": false,
      "inputs": [
        {
          "indexed": true,
          "internalType": "address",
          "name": "account",
          "type": "address"
        }
      ],
      "name": "AdminRemoved",
      "type": "event"
    },
    {
      "anonymous": false,
      "inputs": [
        {
          "indexed": true,
          "internalType": "uint256",
          "name": "fileId",
          "type": "uint256"
        },
        {
          "indexed": false,
          "internalType": "string",
          "name": "ipfsHash",
          "type": "string"
        }
      ],
      "name": "FileHashAdded",
      "type": "event"
    },
    {
      "anonymous": false,
      "inputs": [
        {
          "indexed": true,
          "internalType": "address",
          "name": "previousOwner",
          "type": "address"
        },
        {
          "indexed": true,
          "internalType": "address",
          "name": "newOwner",
          "type": "address"
        }
      ],
      "name": "OwnershipTransferred",
      "type": "event"
    },
    {
      "inputs": [
        {
          "internalType": "address",
          "name": "account",
          "type": "address"
        }
      ],
      "name": "addAdmin",
      "outputs": [],
      "stateMutability": "nonpayable",
      "type": "function"
    },
    {
      "inputs": [
        {
          "internalType": "string",
          "name": "ipfsHash",
          "type": "string"
        }
      ],
      "name": "addFileHash",
      "outputs": [
        {
          "internalType": "uint256",
          "name": "",
          "type": "uint256"
        }
      ],
      "stateMutability": "nonpayable",
      "type": "function"
    },
    {
      "inputs": [
        {
          "internalType": "uint256",
          "name": "",
          "type": "uint256"
        }
      ],
      "name": "fileHashes",
      "outputs": [
        {
          "internalType": "string",
          "name": "",
          "type": "string"
        }
      ],
      "stateMutability": "view",
      "type": "function"
    },
    {
      "inputs": [
        {
          "internalType": "uint256",
          "name": "fileId",
          "type": "uint256"
        }
      ],
      "name": "getFileHash",
      "outputs": [
        {
          "internalType": "string",
          "name": "",
          "type": "string"
        }
      ],
      "stateMutability": "view",
      "type": "function"
    },
    {
      "inputs": [
        {
          "internalType": "address",
          "name": "account",
          "type": "address"
        }
      ],
      "name": "isAdmin",
      "outputs": [
        {
          "internalType": "bool",
          "name": "",
          "type": "bool"
        }
      ],
      "stateMutability": "view",
      "type": "function"
    },
    {
      "inputs": [],
      "name": "owner",
      "outputs": [
        {
          "internalType": "address",
          "name": "",
          "type": "address"
        }
      ],
      "stateMutability": "view",
      "type": "function"
    },
    {
      "inputs": [
        {
          "internalType": "address",
          "name": "account",
          "type": "address"
        }
      ],
      "name": "removeAdmin",
      "outputs": [],
      "stateMutability": "nonpayable",
      "type": "function"
    },
    {
      "inputs": [],
      "name": "renounceOwnership",
      "outputs": [],
      "stateMutability": "nonpayable",
      "type": "function"
    },
    {
      "inputs": [
        {
          "internalType": "address",
          "name": "newOwner",
          "type": "address"
        }
      ],
      "name": "transferOwnership",
      "outputs": [],
      "stateMutability": "nonpayable",
      "type": "function"
    },
    {
      "inputs": [
        {
          "internalType": "string",
          "name": "name",
          "type": "string"
        },
        {
          "internalType": "string",
          "name": "ipfsHash",
          "type": "string"
        }
      ],
      "name": "createGroup",
      "outputs": [
        {
          "internalType": "uint256",
          "name": "",
          "type": "uint256"
        }
      ],
      "stateMutability": "nonpayable",
      "type": "function"
    },
    {
      "inputs": [
        {
          "internalType": "uint256",
          "name": "groupId",
          "type": "uint256"
        },
        {
          "internalType": "address",
          "name": "member",
          "type": "address"
        }
      ],
      "name": "addGroupMember",
      "outputs": [],
      "stateMutability": "nonpayable",
      "type": "function"
    },
    {
      "inputs": [
        {
          "internalType": "uint256",
          "name": "groupId",
          "type": "uint256"
        },
        {
          "internalType": "address",
          "name": "member",
          "type": "address"
        }
      ],
      "name": "removeGroupMember",
      "outputs": [],
      "stateMutability": "nonpayable",
      "type": "function"
    },
    {
      "inputs": [
        {
          "internalType": "uint256",
          "name": "groupId",
          "type": "uint256"
        },
        {
          "internalType": "string",
          "name": "newName",
          "type": "string"
        },
        {
          "internalType": "string",
          "name": "newIpfsHash",
          "type": "string"
        }
      ],
      "name": "updateGroupName",
      "outputs": [],
      "stateMutability": "nonpayable",
      "type": "function"
    },
    {
      "inputs": [
        {
          "internalType": "uint256",
          "name": "groupId",
          "type": "uint256"
        }
      ],
      "name": "getGroupInfo",
      "outputs": [
        {
          "components": [
            {
              "internalType": "string",
              "name": "name",
              "type": "string"
            },
            {
              "internalType": "address[]",
              "name": "members",
              "type": "address[]"
            },
            {
              "internalType": "string",
              "name": "ipfsHash",
              "type": "string"
            }
          ],
          "internalType": "struct StudentGroup.Group",
          "name": "",
          "type": "tuple"
        }
      ],
      "stateMutability": "view",
      "type": "function"
    },
    {
      "inputs": [
        {
          "internalType": "uint256",
          "name": "groupId",
          "type": "uint256"
        },
        {
          "internalType": "address",
          "name": "member",
          "type": "address"
        }
      ],
      "name": "isGroupMember",
      "outputs": [
        {
          "internalType": "bool",
          "name": "",
          "type": "bool"
        }
      ],
      "stateMutability": "view",
      "type": "function"
    }
  ],
  "bytecode": "0x608060405234801561001057600080fd5b5061002d61002261003a60201b60201c565b61004260201b60201c565b6000600381905550610106565b600033905090565b60008060009054906101000a900473ffffffffffffffffffffffffffffffffffffffff169050816000806101000a81548173ffffffffffffffffffffffffffffffffffffffff021916908373ffffffffffffffffffffffffffffffffffffffff1602179055508173ffffffffffffffffffffffffffffffffffffffff168173ffffffffffffffffffffffffffffffffffffffff167f8be0079c531659141344cd1fd0a4f28419497f9722a3daafe3b4186f6b6457e060405160405180910390a35050565b611f21806101156000396000f3fe608060405234801561001057600080fd5b50600436106100f55760003560e01c80638471cf8611610097578063bfeb560711610066578063bfeb56071461026e578063c110f4c91461029e578063eb131135146102ce578063f2fde38b146102fe576100f5565b80638471cf86146101d45780638da5cb5b146101f057806399d4360f1461020e578063ba89949e1461023e576100f5565b806324d7806c116100d357806324d7806c1461016257806352b807f11461019257806370480275146101ae578063715018a6146101ca576100f5565b80631785f53c146100fa5780631e4a97dd146101165780631e9ff86014610146575b600080fd5b610114600480360381019061010f91906115c0565b61031a565b005b610130600480360381019061012b919061162a565b61032e565b60405161013d9190611ac5565b60405180910390f35b610160600480360381019061015b91906116fb565b61052f565b005b61017c600480360381019061017791906115c0565b610627565b60405161018991906119c6565b60405180910390f35b6101ac60048036038101906101a791906116bf565b61067d565b005b6101c860048036038101906101c391906115c0565b6107fe565b005b6101d2610812565b005b6101ee60048036038101906101e991906116bf565b610826565b005b6101f8610c50565b60405161020591906119ab565b60405180910390f35b61022860048036038101906102239190611696565b610c79565b6040516102359190611aa3565b60405180910390f35b610258600480360381019061025391906115e9565b610e58565b6040516102659190611ac5565b60405180910390f35b610288600480360381019061028391906116bf565b610f2a565b60405161029591906119c6565b60405180910390f35b6102b860048036038101906102b39190611696565b610f92565b6040516102c591906119e1565b60405180910390f35b6102e860048036038101906102e39190611696565b611032565b6040516102f591906119e1565b60405180910390f35b610318600480360381019061031391906115c0565b6110d7565b005b61032261115b565b61032b816111d9565b50565b60008060045490506040518060600160405280858152602001600067ffffffffffffffff811115610388577f4e487b7100000000000000000000000000000000000000000000000000000000600052604160045260246000fd5b6040519080825280602002602001820160405280156103b65781602001602082028036833780820191505090505b508152602001848152506005600083815260200190815260200160002060008201518160000190805190602001906103ef9291906113e0565b50602082015181600101908051906020019061040c929190611466565b5060408201518160020190805190602001906104299291906113e0565b5090505060016006600083815260200190815260200160002060003373ffffffffffffffffffffffffffffffffffffffff1673ffffffffffffffffffffffffffffffffffffffff16815260200190815260200160002060006101000a81548160ff02191690831515021790555060056000828152602001908152602001600020600101339080600181540180825580915050600190039060005260206000200160009091909190916101000a81548173ffffffffffffffffffffffffffffffffffffffff021916908373ffffffffffffffffffffffffffffffffffffffff1602179055506004600081548092919061052090611cbd565b91905055508091505092915050565b6006600084815260200190815260200160002060003373ffffffffffffffffffffffffffffffffffffffff1673ffffffffffffffffffffffffffffffffffffffff16815260200190815260200160002060009054906101000a900460ff166105cc576040517f08c379a00000000000000000000000000000000000000000000000000000000081526004016105c390611a23565b60405180910390fd5b816005600085815260200190815260200160002060000190805190602001906105f69291906113e0565b50806005600085815260200190815260200160002060020190805190602001906106219291906113e0565b50505050565b6000600160008373ffffffffffffffffffffffffffffffffffffffff1673ffffffffffffffffffffffffffffffffffffffff16815260200190815260200160002060009054906101000a900460ff169050919050565b6006600083815260200190815260200160002060003373ffffffffffffffffffffffffffffffffffffffff1673ffffffffffffffffffffffffffffffffffffffff16815260200190815260200160002060009054906101000a900460ff1661071a576040517f08c379a000000000000000000000000000000000000000000000000000000000815260040161071190611a23565b60405180910390fd5b60016006600084815260200190815260200160002060008373ffffffffffffffffffffffffffffffffffffffff1673ffffffffffffffffffffffffffffffffffffffff16815260200190815260200160002060006101000a81548160ff02191690831515021790555060056000838152602001908152602001600020600101819080600181540180825580915050600190039060005260206000200160009091909190916101000a81548173ffffffffffffffffffffffffffffffffffffffff021916908373ffffffffffffffffffffffffffffffffffffffff1602179055505050565b61080661115b565b61080f81611277565b50565b61081a61115b565b6108246000611314565b565b6006600083815260200190815260200160002060003373ffffffffffffffffffffffffffffffffffffffff1673ffffffffffffffffffffffffffffffffffffffff16815260200190815260200160002060009054906101000a900460ff166108c3576040517f08c379a00000000000000000000000000000000000000000000000000000000081526004016108ba90611a23565b60405180910390fd5b3373ffffffffffffffffffffffffffffffffffffffff168173ffffffffffffffffffffffffffffffffffffffff161415610932576040517f08c379a000000000000000000000000000000000000000000000000000000000815260040161092990611a43565b60405180910390fd5b60006006600084815260200190815260200160002060008373ffffffffffffffffffffffffffffffffffffffff1673ffffffffffffffffffffffffffffffffffffffff16815260200190815260200160002060006101000a81548160ff02191690831515021790555060008060005b6005600086815260200190815260200160002060010180549050811015610a8d578373ffffffffffffffffffffffffffffffffffffffff16600560008781526020019081526020016000206001018281548110610a27577f4e487b7100000000000000000000000000000000000000000000000000000000600052603260045260246000fd5b9060005260206000200160009054906101000a900473ffffffffffffffffffffffffffffffffffffffff1673ffffffffffffffffffffffffffffffffffffffff161415610a7a5780925060019150610a8d565b8080610a8590611cbd565b9150506109a1565b508015610c4a576005600085815260200190815260200160002060010160016005600087815260200190815260200160002060010180549050610ad09190611b9c565b81548110610b07577f4e487b7100000000000000000000000000000000000000000000000000000000600052603260045260246000fd5b9060005260206000200160009054906101000a900473ffffffffffffffffffffffffffffffffffffffff16600560008681526020019081526020016000206001018381548110610b80577f4e487b7100000000000000000000000000000000000000000000000000000000600052603260045260246000fd5b9060005260206000200160006101000a81548173ffffffffffffffffffffffffffffffffffffffff021916908373ffffffffffffffffffffffffffffffffffffffff16021790555060056000858152602001908152602001600020600101805480610c14577f4e487b7100000000000000000000000000000000000000000000000000000000600052603160045260246000fd5b6001900381819060005260206000200160006101000a81549073ffffffffffffffffffffffffffffffffffffffff021916905590555b50505050565b60008060009054906101000a900473ffffffffffffffffffffffffffffffffffffffff16905090565b610c816114f0565b60056000838152602001908152602001600020604051806060016040529081600082018054610caf90611c5a565b80601f0160208091040260200160405190810160405280929190818152602001828054610cdb90611c5a565b8015610d285780601f10610cfd57610100808354040283529160200191610d28565b820191906000526020600020905b815481529060010190602001808311610d0b57829003601f168201915b5050505050815260200160018201805480602002602001604051908101604052809291908181526020018280548015610db657602002820191906000526020600020905b8160009054906101000a900473ffffffffffffffffffffffffffffffffffffffff1673ffffffffffffffffffffffffffffffffffffffff1681526020019060010190808311610d6c575b50505050508152602001600282018054610dcf90611c5a565b80601f0160208091040260200160405190810160405280929190818152602001828054610dfb90611c5a565b8015610e485780601f10610e1d57610100808354040283529160200191610e48565b820191906000526020600020905b815481529060010190602001808311610e2b57829003601f168201915b5050505050815250509050919050565b6000610e6333610627565b610ea2576040517f08c379a0000000000000000000000000000000000000000000000000000000008152600401610e9990611a83565b60405180910390fd5b6000600354905082600260008381526020019081526020016000209080519060200190610ed09291906113e0565b5060036000815480929190610ee490611cbd565b9190505550807fd14e25ed71a404367461d2269b2413ef73b82aae51eaf6f172af69e3bcc32ee384604051610f1991906119e1565b60405180910390a280915050919050565b60006006600084815260200190815260200160002060008373ffffffffffffffffffffffffffffffffffffffff1673ffffffffffffffffffffffffffffffffffffffff16815260200190815260200160002060009054906101000a900460ff16905092915050565b60026020528060005260406000206000915090508054610fb190611c5a565b80601f0160208091040260200160405190810160405280929190818152602001828054610fdd90611c5a565b801561102a5780601f10610fff5761010080835404028352916020019161102a565b820191906000526020600020905b81548152906001019060200180831161100d57829003601f168201915b505050505081565b606060026000838152602001908152602001600020805461105290611c5a565b80601f016020809104026020016040519081016040528092919081815260200182805461107e90611c5a565b80156110cb5780601f106110a0576101008083540402835291602001916110cb565b820191906000526020600020905b8154815290600101906020018083116110ae57829003601f168201915b50505050509050919050565b6110df61115b565b600073ffffffffffffffffffffffffffffffffffffffff168173ffffffffffffffffffffffffffffffffffffffff16141561114f576040517f08c379a000000000000000000000000000000000000000000000000000000000815260040161114690611a03565b60405180910390fd5b61115881611314565b50565b6111636113d8565b73ffffffffffffffffffffffffffffffffffffffff16611181610c50565b73ffffffffffffffffffffffffffffffffffffffff16146111d7576040517f08c379a00000000000000000000000000000000000000000000000000000000081526004016111ce90611a63565b60405180910390fd5b565b6000600160008373ffffffffffffffffffffffffffffffffffffffff1673ffffffffffffffffffffffffffffffffffffffff16815260200190815260200160002060006101000a81548160ff0219169083151502179055508073ffffffffffffffffffffffffffffffffffffffff167fa3b62bc36326052d97ea62d63c3d60308ed4c3ea8ac079dd8499f1e9c4f80c0f60405160405180910390a250565b60018060008373ffffffffffffffffffffffffffffffffffffffff1673ffffffffffffffffffffffffffffffffffffffff16815260200190815260200160002060006101000a81548160ff0219169083151502179055508073ffffffffffffffffffffffffffffffffffffffff167f44d6d25963f097ad14f29f06854a01f575648a1ef82f30e562ccd3889717e33960405160405180910390a250565b60008060009054906101000a900473ffffffffffffffffffffffffffffffffffffffff169050816000806101000a81548173ffffffffffffffffffffffffffffffffffffffff021916908373ffffffffffffffffffffffffffffffffffffffff1602179055508173ffffffffffffffffffffffffffffffffffffffff168173ffffffffffffffffffffffffffffffffffffffff167f8be0079c531659141344cd1fd0a4f28419497f9722a3daafe3b4186f6b6457e060405160405180910390a35050565b600033905090565b8280546113ec90611c5a565b90600052602060002090601f01602090048101928261140e5760008555611455565b82601f1061142757805160ff1916838001178555611455565b82800160010185558215611455579182015b82811115611454578251825591602001919060010190611439565b5b5090506114629190611511565b5090565b8280548282559060005260206000209081019282156114df579160200282015b828111156114de5782518260006101000a81548173ffffffffffffffffffffffffffffffffffffffff021916908373ffffffffffffffffffffffffffffffffffffffff16021790555091602001919060010190611486565b5b5090506114ec9190611511565b5090565b60405180606001604052806060815260200160608152602001606081525090565b5b8082111561152a576000816000905550600101611512565b5090565b600061154161153c84611b05565b611ae0565b90508281526020810184848401111561155957600080fd5b611564848285611c18565b509392505050565b60008135905061157b81611ebd565b92915050565b600082601f83011261159257600080fd5b81356115a284826020860161152e565b91505092915050565b6000813590506115ba81611ed4565b92915050565b6000602082840312156115d257600080fd5b60006115e08482850161156c565b91505092915050565b6000602082840312156115fb57600080fd5b600082013567ffffffffffffffff81111561161557600080fd5b61162184828501611581565b91505092915050565b6000806040838503121561163d57600080fd5b600083013567ffffffffffffffff81111561165757600080fd5b61166385828601611581565b925050602083013567ffffffffffffffff81111561168057600080fd5b61168c85828601611581565b9150509250929050565b6000602082840312156116a857600080fd5b60006116b6848285016115ab565b91505092915050565b600080604083850312156116d257600080fd5b60006116e0858286016115ab565b92505060206116f18582860161156c565b9150509250929050565b60008060006060848603121561171057600080fd5b600061171e868287016115ab565b935050602084013567ffffffffffffffff81111561173b57600080fd5b61174786828701611581565b925050604084013567ffffffffffffffff81111561176457600080fd5b61177086828701611581565b9150509250925092565b60006117868383611792565b60208301905092915050565b61179b81611bd0565b82525050565b6117aa81611bd0565b82525050565b60006117bb82611b46565b6117c58185611b69565b93506117d083611b36565b8060005b838110156118015781516117e8888261177a565b97506117f383611b5c565b9250506001810190506117d4565b5085935050505092915050565b61181781611be2565b82525050565b600061182882611b51565b6118328185611b7a565b9350611842818560208601611c27565b61184b81611d93565b840191505092915050565b600061186182611b51565b61186b8185611b8b565b935061187b818560208601611c27565b61188481611d93565b840191505092915050565b600061189c602683611b8b565b91506118a782611da4565b604082019050919050565b60006118bf601283611b8b565b91506118ca82611df3565b602082019050919050565b60006118e2601683611b8b565b91506118ed82611e1c565b602082019050919050565b6000611905602083611b8b565b915061191082611e45565b602082019050919050565b6000611928602583611b8b565b915061193382611e6e565b604082019050919050565b6000606083016000830151848203600086015261195b828261181d565b9150506020830151848203602086015261197582826117b0565b9150506040830151848203604086015261198f828261181d565b9150508091505092915050565b6119a581611c0e565b82525050565b60006020820190506119c060008301846117a1565b92915050565b60006020820190506119db600083018461180e565b92915050565b600060208201905081810360008301526119fb8184611856565b905092915050565b60006020820190508181036000830152611a1c8161188f565b9050919050565b60006020820190508181036000830152611a3c816118b2565b9050919050565b60006020820190508181036000830152611a5c816118d5565b9050919050565b60006020820190508181036000830152611a7c816118f8565b9050919050565b60006020820190508181036000830152611a9c8161191b565b9050919050565b60006020820190508181036000830152611abd818461193e565b905092915050565b6000602082019050611ada600083018461199c565b92915050565b6000611aea611afb565b9050611af68282611c8c565b919050565b6000604051905090565b600067ffffffffffffffff821115611b2057611b1f611d64565b5b611b2982611d93565b9050602081019050919050565b6000819050602082019050919050565b600081519050919050565b600081519050919050565b6000602082019050919050565b600082825260208201905092915050565b600082825260208201905092915050565b600082825260208201905092915050565b6000611ba782611c0e565b9150611bb283611c0e565b925082821015611bc557611bc4611d06565b5b828203905092915050565b6000611bdb82611bee565b9050919050565b60008115159050919050565b600073ffffffffffffffffffffffffffffffffffffffff82169050919050565b6000819050919050565b82818337600083830152505050565b60005b83811015611c45578082015181840152602081019050611c2a565b83811115611c54576000848401525b50505050565b60006002820490506001821680611c7257607f821691505b60208210811415611c8657611c85611d35565b5b50919050565b611c9582611d93565b810181811067ffffffffffffffff82111715611cb457611cb3611d64565b5b80604052505050565b6000611cc882611c0e565b91507fffffffffffffffffffffffffffffffffffffffffffffffffffffffffffffffff821415611cfb57611cfa611d06565b5b600182019050919050565b7f4e487b7100000000000000000000000000000000000000000000000000000000600052601160045260246000fd5b7f4e487b7100000000000000000000000000000000000000000000000000000000600052602260045260246000fd5b7f4e487b7100000000000000000000000000000000000000000000000000000000600052604160045260246000fd5b6000601f19601f8301169050919050565b7f4f776e61626c653a206e6577206f776e657220697320746865207a65726f206160008201527f6464726573730000000000000000000000000000000000000000000000000000602082015250565b7f4e6f7420612067726f7570206d656d6265720000000000000000000000000000600082015250565b7f43616e6e6f742072656d6f766520796f757273656c6600000000000000000000600082015250565b7f4f776e61626c653a2063616c6c6572206973206e6f7420746865206f776e6572600082015250565b7f416363657373436f6e74726f6c3a2063616c6c6572206973206e6f7420616e2060008201527f61646d696e000000000000000000000000000000000000000000000000000000602082015250565b611ec681611bd0565b8114611ed157600080fd5b50565b611edd81611c0e565b8114611ee857600080fd5b5056fea2646970667358221220197646a9b7249932442957ac1957f04addb476375e4503b508198ece949023e364736f6c63430008010033",
  "immutableReferences": {},
  "source": "// SPDX-License-Identifier: MIT\r\npragma solidity ^0.8.0;\r\n\r\nimport \"./AccessControl.sol\";\r\n\r\ncontract StudentGroup is AccessControl {\r\n    uint256 private _groupIdCounter;\r\n\r\n    struct Group {\r\n        string name;\r\n        address[] members;\r\n        string ipfsHash;\r\n    }\r\n\r\n    mapping(uint256 => Group) private _groups;\r\n    mapping(uint256 => mapping(address => bool)) private _groupMembers;\r\n\r\n    function createGroup(string memory name, string memory ipfsHash) public returns (uint256) {\r\n        uint256 groupId = _groupIdCounter;\r\n        _groups[groupId] = Group(name, new address[](0), ipfsHash);\r\n        _groupMembers[groupId][msg.sender] = true;\r\n        _groups[groupId].members.push(msg.sender);\r\n        _groupIdCounter++;\r\n        return groupId;\r\n    }\r\n\r\n    function addGroupMember(uint256 groupId, address member) public {\r\n        require(_groupMembers[groupId][msg.sender], \"Not a group member\");\r\n        _groupMembers[groupId][member] = true;\r\n        _groups[groupId].members.push(member);\r\n    }\r\n\r\n    function removeGroupMember(uint256 groupId, address member) public {\r\n        require(_groupMembers[groupId][msg.sender], \"Not a group member\");\r\n        require(member != msg.sender, \"Cannot remove yourself\");\r\n        _groupMembers[groupId][member] = false;\r\n\r\n        uint256 index;\r\n        bool found;\r\n        for (uint256 i = 0; i < _groups[groupId].members.length; i++) {\r\n            if (_groups[groupId].members[i] == member) {\r\n                index = i;\r\n                found = true;\r\n                break;\r\n            }\r\n        }\r\n\r\n        if (found) {\r\n            _groups[groupId].members[index] = _groups[groupId].members[_groups[groupId].members.length - 1];\r\n            _groups[groupId].members.pop();\r\n        }\r\n    }\r\n\r\n    function updateGroupName(uint256 groupId, string memory newName, string memory newIpfsHash) public {\r\n        require(_groupMembers[groupId][msg.sender], \"Not a group member\");\r\n        _groups[groupId].name = newName;\r\n        _groups[groupId].ipfsHash = newIpfsHash;\r\n    }\r\n\r\n    function getGroupInfo(uint256 groupId) public view returns (Group memory) {\r\n        return _groups[groupId];\r\n    }\r\n\r\n    function isGroupMember(uint256 groupId, address member) public view returns (bool) {\r\n        return _groupMembers[groupId][member];\r\n    }\r\n}",
  "sourcePath": "C:\\Users\\GAUTHAM\\Desktop\\FS\\mdos\\contracts\\StudentGroup.sol",
  "compiler": {
    "name": "solc",
    "version": "0.8.1+commit.df193b15.Emscripten.clang"
  },
  "schemaVersion": "3.4.13",
  "updatedAt": "2023-05-04T07:17:32.304Z",
  "devdoc": {
    "kind": "dev",
    "methods": {
      "owner()": {
        "details": "Returns the address of the current owner."
      },
      "renounceOwnership()": {
        "details": "Leaves the contract without owner. It will not be possible to call `onlyOwner` functions anymore. Can only be called by the current owner. NOTE: Renouncing ownership will leave the contract without an owner, thereby removing any functionality that is only available to the owner."
      },
      "transferOwnership(address)": {
        "details": "Transfers ownership of the contract to a new account (`newOwner`). Can only be called by the current owner."
      }
    },
    "version": 1
  },
  "userdoc": {
    "kind": "user",
    "methods": {},
    "version": 1
  }
}